{
  "abi": [
    {
      "type": "constructor",
      "inputs": [
        {
          "name": "_tld",
          "type": "string",
          "internalType": "string"
        },
        {
          "name": "_hnsManager",
          "type": "address",
          "internalType": "address"
        },
        {
          "name": "_svgLibrary",
          "type": "address",
          "internalType": "address"
        }
      ],
      "stateMutability": "nonpayable"
    },
    {
      "type": "function",
      "name": "DEV_FEE_PERCENTAGE",
      "inputs": [],
      "outputs": [
        {
          "name": "",
          "type": "uint256",
          "internalType": "uint256"
        }
      ],
      "stateMutability": "view"
    },
    {
      "type": "function",
      "name": "MAX_CLEANUP_BATCH",
      "inputs": [],
      "outputs": [
        {
          "name": "",
          "type": "uint256",
          "internalType": "uint256"
        }
      ],
      "stateMutability": "view"
    },
    {
      "type": "function",
      "name": "MAX_DOMAIN_LENGTH",
      "inputs": [],
      "outputs": [
        {
          "name": "",
          "type": "uint256",
          "internalType": "uint256"
        }
      ],
      "stateMutability": "view"
    },
    {
      "type": "function",
      "name": "MAX_REGISTRATION_YEARS",
      "inputs": [],
      "outputs": [
        {
          "name": "",
          "type": "uint256",
          "internalType": "uint256"
        }
      ],
      "stateMutability": "view"
    },
    {
      "type": "function",
      "name": "MIN_DOMAIN_LENGTH",
      "inputs": [],
      "outputs": [
        {
          "name": "",
          "type": "uint256",
          "internalType": "uint256"
        }
      ],
      "stateMutability": "view"
    },
    {
      "type": "function",
      "name": "PRICE_3_CHAR",
      "inputs": [],
      "outputs": [
        {
          "name": "",
          "type": "uint256",
          "internalType": "uint256"
        }
      ],
      "stateMutability": "view"
    },
    {
      "type": "function",
      "name": "PRICE_4_CHAR",
      "inputs": [],
      "outputs": [
        {
          "name": "",
          "type": "uint256",
          "internalType": "uint256"
        }
      ],
      "stateMutability": "view"
    },
    {
      "type": "function",
      "name": "PRICE_5_CHAR",
      "inputs": [],
      "outputs": [
        {
          "name": "",
          "type": "uint256",
          "internalType": "uint256"
        }
      ],
      "stateMutability": "view"
    },
    {
      "type": "function",
      "name": "PRICE_6_CHAR",
      "inputs": [],
      "outputs": [
        {
          "name": "",
          "type": "uint256",
          "internalType": "uint256"
        }
      ],
      "stateMutability": "view"
    },
    {
      "type": "function",
      "name": "PRICE_7_PLUS",
      "inputs": [],
      "outputs": [
        {
          "name": "",
          "type": "uint256",
          "internalType": "uint256"
        }
      ],
      "stateMutability": "view"
    },
    {
      "type": "function",
      "name": "ROYALTY_PERCENTAGE",
      "inputs": [],
      "outputs": [
        {
          "name": "",
          "type": "uint256",
          "internalType": "uint256"
        }
      ],
      "stateMutability": "view"
    },
    {
      "type": "function",
      "name": "allDomains",
      "inputs": [
        {
          "name": "",
          "type": "uint256",
          "internalType": "uint256"
        }
      ],
      "outputs": [
        {
          "name": "",
          "type": "string",
          "internalType": "string"
        }
      ],
      "stateMutability": "view"
    },
    {
      "type": "function",
      "name": "approve",
      "inputs": [
        {
          "name": "to",
          "type": "address",
          "internalType": "address"
        },
        {
          "name": "tokenId",
          "type": "uint256",
          "internalType": "uint256"
        }
      ],
      "outputs": [],
      "stateMutability": "nonpayable"
    },
    {
      "type": "function",
      "name": "balanceOf",
      "inputs": [
        {
          "name": "owner",
          "type": "address",
          "internalType": "address"
        }
      ],
      "outputs": [
        {
          "name": "",
          "type": "uint256",
          "internalType": "uint256"
        }
      ],
      "stateMutability": "view"
    },
    {
      "type": "function",
      "name": "checkAndBurnExpiredDomains",
      "inputs": [],
      "outputs": [],
      "stateMutability": "nonpayable"
    },
    {
      "type": "function",
      "name": "cleanupExpiredDomains",
      "inputs": [
        {
          "name": "maxDomains",
          "type": "uint256",
          "internalType": "uint256"
        }
      ],
      "outputs": [],
      "stateMutability": "nonpayable"
    },
    {
      "type": "function",
      "name": "devFeeRecipient",
      "inputs": [],
      "outputs": [
        {
          "name": "",
          "type": "address",
          "internalType": "address"
        }
      ],
      "stateMutability": "view"
    },
    {
      "type": "function",
      "name": "domainToToken",
      "inputs": [
        {
          "name": "",
          "type": "string",
          "internalType": "string"
        }
      ],
      "outputs": [
        {
          "name": "",
          "type": "uint256",
          "internalType": "uint256"
        }
      ],
      "stateMutability": "view"
    },
    {
      "type": "function",
      "name": "domains",
      "inputs": [
        {
          "name": "",
          "type": "string",
          "internalType": "string"
        }
      ],
      "outputs": [
        {
          "name": "owner",
          "type": "address",
          "internalType": "address"
        },
        {
          "name": "renewalCount",
          "type": "uint96",
          "internalType": "uint96"
        },
        {
          "name": "expiration",
          "type": "uint256",
          "internalType": "uint256"
        },
        {
          "name": "registrationDate",
          "type": "uint256",
          "internalType": "uint256"
        }
      ],
      "stateMutability": "view"
    },
    {
      "type": "function",
      "name": "getAllDomains",
      "inputs": [],
      "outputs": [
        {
          "name": "",
          "type": "string[]",
          "internalType": "string[]"
        }
      ],
      "stateMutability": "view"
    },
    {
      "type": "function",
      "name": "getApproved",
      "inputs": [
        {
          "name": "tokenId",
          "type": "uint256",
          "internalType": "uint256"
        }
      ],
      "outputs": [
        {
          "name": "",
          "type": "address",
          "internalType": "address"
        }
      ],
      "stateMutability": "view"
    },
    {
      "type": "function",
      "name": "getDomainExpiration",
      "inputs": [
        {
          "name": "name",
          "type": "string",
          "internalType": "string"
        }
      ],
      "outputs": [
        {
          "name": "",
          "type": "uint256",
          "internalType": "uint256"
        }
      ],
      "stateMutability": "view"
    },
    {
      "type": "function",
      "name": "getDomainInfo",
      "inputs": [
        {
          "name": "name",
          "type": "string",
          "internalType": "string"
        }
      ],
      "outputs": [
        {
          "name": "owner",
          "type": "address",
          "internalType": "address"
        },
        {
          "name": "expiration",
          "type": "uint256",
          "internalType": "uint256"
        },
        {
          "name": "registrationDate",
          "type": "uint256",
          "internalType": "uint256"
        },
        {
          "name": "renewalCount",
          "type": "uint256",
          "internalType": "uint256"
        }
      ],
      "stateMutability": "view"
    },
    {
      "type": "function",
      "name": "getDomainOwner",
      "inputs": [
        {
          "name": "name",
          "type": "string",
          "internalType": "string"
        }
      ],
      "outputs": [
        {
          "name": "",
          "type": "address",
          "internalType": "address"
        }
      ],
      "stateMutability": "view"
    },
    {
      "type": "function",
      "name": "getTotalDomainCount",
      "inputs": [],
      "outputs": [
        {
          "name": "",
          "type": "uint256",
          "internalType": "uint256"
        }
      ],
      "stateMutability": "view"
    },
    {
      "type": "function",
      "name": "hnsManager",
      "inputs": [],
      "outputs": [
        {
          "name": "",
          "type": "address",
          "internalType": "address"
        }
      ],
      "stateMutability": "view"
    },
    {
      "type": "function",
      "name": "isApprovedForAll",
      "inputs": [
        {
          "name": "owner",
          "type": "address",
          "internalType": "address"
        },
        {
          "name": "operator",
          "type": "address",
          "internalType": "address"
        }
      ],
      "outputs": [
        {
          "name": "",
          "type": "bool",
          "internalType": "bool"
        }
      ],
      "stateMutability": "view"
    },
    {
      "type": "function",
      "name": "isDomainAvailable",
      "inputs": [
        {
          "name": "name",
          "type": "string",
          "internalType": "string"
        }
      ],
      "outputs": [
        {
          "name": "",
          "type": "bool",
          "internalType": "bool"
        }
      ],
      "stateMutability": "view"
    },
    {
      "type": "function",
      "name": "name",
      "inputs": [],
      "outputs": [
        {
          "name": "",
          "type": "string",
          "internalType": "string"
        }
      ],
      "stateMutability": "view"
    },
    {
      "type": "function",
      "name": "ownerOf",
      "inputs": [
        {
          "name": "tokenId",
          "type": "uint256",
          "internalType": "uint256"
        }
      ],
      "outputs": [
        {
          "name": "",
          "type": "address",
          "internalType": "address"
        }
      ],
      "stateMutability": "view"
    },
    {
      "type": "function",
      "name": "register",
      "inputs": [
        {
          "name": "name",
          "type": "string",
          "internalType": "string"
        },
        {
          "name": "yearsToRegister",
          "type": "uint256",
          "internalType": "uint256"
        }
      ],
      "outputs": [],
      "stateMutability": "payable"
    },
    {
      "type": "function",
      "name": "renew",
      "inputs": [
        {
          "name": "name",
          "type": "string",
          "internalType": "string"
        },
        {
          "name": "yearsToRenew",
          "type": "uint256",
          "internalType": "uint256"
        }
      ],
      "outputs": [],
      "stateMutability": "payable"
    },
    {
      "type": "function",
      "name": "resolveDomain",
      "inputs": [
        {
          "name": "name",
          "type": "string",
          "internalType": "string"
        }
      ],
      "outputs": [
        {
          "name": "owner",
          "type": "address",
          "internalType": "address"
        },
        {
          "name": "expiration",
          "type": "uint256",
          "internalType": "uint256"
        },
        {
          "name": "nftAddress",
          "type": "address",
          "internalType": "address"
        },
        {
          "name": "tokenId",
          "type": "uint256",
          "internalType": "uint256"
        }
      ],
      "stateMutability": "view"
    },
    {
      "type": "function",
      "name": "royaltyInfo",
      "inputs": [
        {
          "name": "tokenId",
          "type": "uint256",
          "internalType": "uint256"
        },
        {
          "name": "salePrice",
          "type": "uint256",
          "internalType": "uint256"
        }
      ],
      "outputs": [
        {
          "name": "receiver",
          "type": "address",
          "internalType": "address"
        },
        {
          "name": "royaltyAmount",
          "type": "uint256",
          "internalType": "uint256"
        }
      ],
      "stateMutability": "view"
    },
    {
      "type": "function",
      "name": "safeTransferFrom",
      "inputs": [
        {
          "name": "from",
          "type": "address",
          "internalType": "address"
        },
        {
          "name": "to",
          "type": "address",
          "internalType": "address"
        },
        {
          "name": "tokenId",
          "type": "uint256",
          "internalType": "uint256"
        }
      ],
      "outputs": [],
      "stateMutability": "nonpayable"
    },
    {
      "type": "function",
      "name": "safeTransferFrom",
      "inputs": [
        {
          "name": "from",
          "type": "address",
          "internalType": "address"
        },
        {
          "name": "to",
          "type": "address",
          "internalType": "address"
        },
        {
          "name": "tokenId",
          "type": "uint256",
          "internalType": "uint256"
        },
        {
          "name": "data",
          "type": "bytes",
          "internalType": "bytes"
        }
      ],
      "outputs": [],
      "stateMutability": "nonpayable"
    },
    {
      "type": "function",
      "name": "setApprovalForAll",
      "inputs": [
        {
          "name": "operator",
          "type": "address",
          "internalType": "address"
        },
        {
          "name": "approved",
          "type": "bool",
          "internalType": "bool"
        }
      ],
      "outputs": [],
      "stateMutability": "nonpayable"
    },
    {
      "type": "function",
      "name": "supportsInterface",
      "inputs": [
        {
          "name": "interfaceId",
          "type": "bytes4",
          "internalType": "bytes4"
        }
      ],
      "outputs": [
        {
          "name": "",
          "type": "bool",
          "internalType": "bool"
        }
      ],
      "stateMutability": "view"
    },
    {
      "type": "function",
      "name": "svgLibrary",
      "inputs": [],
      "outputs": [
        {
          "name": "",
          "type": "address",
          "internalType": "address"
        }
      ],
      "stateMutability": "view"
    },
    {
      "type": "function",
      "name": "symbol",
      "inputs": [],
      "outputs": [
        {
          "name": "",
          "type": "string",
          "internalType": "string"
        }
      ],
      "stateMutability": "view"
    },
    {
      "type": "function",
      "name": "tld",
      "inputs": [],
      "outputs": [
        {
          "name": "",
          "type": "string",
          "internalType": "string"
        }
      ],
      "stateMutability": "view"
    },
    {
      "type": "function",
      "name": "tokenToDomain",
      "inputs": [
        {
          "name": "",
          "type": "uint256",
          "internalType": "uint256"
        }
      ],
      "outputs": [
        {
          "name": "",
          "type": "string",
          "internalType": "string"
        }
      ],
      "stateMutability": "view"
    },
    {
      "type": "function",
      "name": "tokenURI",
      "inputs": [
        {
          "name": "tokenId",
          "type": "uint256",
          "internalType": "uint256"
        }
      ],
      "outputs": [
        {
          "name": "",
          "type": "string",
          "internalType": "string"
        }
      ],
      "stateMutability": "view"
    },
    {
      "type": "function",
      "name": "transferDomain",
      "inputs": [
        {
          "name": "name",
          "type": "string",
          "internalType": "string"
        },
        {
          "name": "to",
          "type": "address",
          "internalType": "address"
        }
      ],
      "outputs": [],
      "stateMutability": "nonpayable"
    },
    {
      "type": "function",
      "name": "transferFrom",
      "inputs": [
        {
          "name": "from",
          "type": "address",
          "internalType": "address"
        },
        {
          "name": "to",
          "type": "address",
          "internalType": "address"
        },
        {
          "name": "tokenId",
          "type": "uint256",
          "internalType": "uint256"
        }
      ],
      "outputs": [],
      "stateMutability": "nonpayable"
    },
    {
      "type": "event",
      "name": "Approval",
      "inputs": [
        {
          "name": "owner",
          "type": "address",
          "indexed": true,
          "internalType": "address"
        },
        {
          "name": "approved",
          "type": "address",
          "indexed": true,
          "internalType": "address"
        },
        {
          "name": "tokenId",
          "type": "uint256",
          "indexed": true,
          "internalType": "uint256"
        }
      ],
      "anonymous": false
    },
    {
      "type": "event",
      "name": "ApprovalForAll",
      "inputs": [
        {
          "name": "owner",
          "type": "address",
          "indexed": true,
          "internalType": "address"
        },
        {
          "name": "operator",
          "type": "address",
          "indexed": true,
          "internalType": "address"
        },
        {
          "name": "approved",
          "type": "bool",
          "indexed": false,
          "internalType": "bool"
        }
      ],
      "anonymous": false
    },
    {
      "type": "event",
      "name": "BatchMetadataUpdate",
      "inputs": [
        {
          "name": "_fromTokenId",
          "type": "uint256",
          "indexed": false,
          "internalType": "uint256"
        },
        {
          "name": "_toTokenId",
          "type": "uint256",
          "indexed": false,
          "internalType": "uint256"
        }
      ],
      "anonymous": false
    },
    {
      "type": "event",
      "name": "DomainExpired",
      "inputs": [
        {
          "name": "name",
          "type": "string",
          "indexed": true,
          "internalType": "string"
        },
        {
          "name": "previousOwner",
          "type": "address",
          "indexed": true,
          "internalType": "address"
        }
      ],
      "anonymous": false
    },
    {
      "type": "event",
      "name": "DomainRegistered",
      "inputs": [
        {
          "name": "name",
          "type": "string",
          "indexed": true,
          "internalType": "string"
        },
        {
          "name": "owner",
          "type": "address",
          "indexed": true,
          "internalType": "address"
        },
        {
          "name": "tokenId",
          "type": "uint256",
          "indexed": false,
          "internalType": "uint256"
        },
        {
          "name": "expiration",
          "type": "uint256",
          "indexed": false,
          "internalType": "uint256"
        }
      ],
      "anonymous": false
    },
    {
      "type": "event",
      "name": "DomainRenewed",
      "inputs": [
        {
          "name": "name",
          "type": "string",
          "indexed": true,
          "internalType": "string"
        },
        {
          "name": "owner",
          "type": "address",
          "indexed": true,
          "internalType": "address"
        },
        {
          "name": "newExpiration",
          "type": "uint256",
          "indexed": false,
          "internalType": "uint256"
        }
      ],
      "anonymous": false
    },
    {
      "type": "event",
      "name": "DomainTransferred",
      "inputs": [
        {
          "name": "name",
          "type": "string",
          "indexed": true,
          "internalType": "string"
        },
        {
          "name": "from",
          "type": "address",
          "indexed": true,
          "internalType": "address"
        },
        {
          "name": "to",
          "type": "address",
          "indexed": true,
          "internalType": "address"
        }
      ],
      "anonymous": false
    },
    {
      "type": "event",
      "name": "ExpiredDomainsProcessed",
      "inputs": [
        {
          "name": "cleaned",
          "type": "uint256",
          "indexed": false,
          "internalType": "uint256"
        }
      ],
      "anonymous": false
    },
    {
      "type": "event",
      "name": "MetadataUpdate",
      "inputs": [
        {
          "name": "_tokenId",
          "type": "uint256",
          "indexed": false,
          "internalType": "uint256"
        }
      ],
      "anonymous": false
    },
    {
      "type": "event",
      "name": "Transfer",
      "inputs": [
        {
          "name": "from",
          "type": "address",
          "indexed": true,
          "internalType": "address"
        },
        {
          "name": "to",
          "type": "address",
          "indexed": true,
          "internalType": "address"
        },
        {
          "name": "tokenId",
          "type": "uint256",
          "indexed": true,
          "internalType": "uint256"
        }
      ],
      "anonymous": false
    },
    {
      "type": "error",
      "name": "BadBatch",
      "inputs": []
    },
    {
      "type": "error",
      "name": "BadMgr",
      "inputs": []
    },
    {
      "type": "error",
      "name": "BadSVG",
      "inputs": []
    },
    {
      "type": "error",
      "name": "BadTLD",
      "inputs": []
    },
    {
      "type": "error",
      "name": "DomainAlreadyRegistered",
      "inputs": [
        {
          "name": "name",
          "type": "string",
          "internalType": "string"
        }
      ]
    },
    {
      "type": "error",
      "name": "DomainIsExpired",
      "inputs": [
        {
          "name": "name",
          "type": "string",
          "internalType": "string"
        }
      ]
    },
    {
      "type": "error",
      "name": "DomainNotFound",
      "inputs": [
        {
          "name": "name",
          "type": "string",
          "internalType": "string"
        }
      ]
    },
    {
      "type": "error",
      "name": "ERC721IncorrectOwner",
      "inputs": [
        {
          "name": "sender",
          "type": "address",
          "internalType": "address"
        },
        {
          "name": "tokenId",
          "type": "uint256",
          "internalType": "uint256"
        },
        {
          "name": "owner",
          "type": "address",
          "internalType": "address"
        }
      ]
    },
    {
      "type": "error",
      "name": "ERC721InsufficientApproval",
      "inputs": [
        {
          "name": "operator",
          "type": "address",
          "internalType": "address"
        },
        {
          "name": "tokenId",
          "type": "uint256",
          "internalType": "uint256"
        }
      ]
    },
    {
      "type": "error",
      "name": "ERC721InvalidApprover",
      "inputs": [
        {
          "name": "approver",
          "type": "address",
          "internalType": "address"
        }
      ]
    },
    {
      "type": "error",
      "name": "ERC721InvalidOperator",
      "inputs": [
        {
          "name": "operator",
          "type": "address",
          "internalType": "address"
        }
      ]
    },
    {
      "type": "error",
      "name": "ERC721InvalidOwner",
      "inputs": [
        {
          "name": "owner",
          "type": "address",
          "internalType": "address"
        }
      ]
    },
    {
      "type": "error",
      "name": "ERC721InvalidReceiver",
      "inputs": [
        {
          "name": "receiver",
          "type": "address",
          "internalType": "address"
        }
      ]
    },
    {
      "type": "error",
      "name": "ERC721InvalidSender",
      "inputs": [
        {
          "name": "sender",
          "type": "address",
          "internalType": "address"
        }
      ]
    },
    {
      "type": "error",
      "name": "ERC721NonexistentToken",
      "inputs": [
        {
          "name": "tokenId",
          "type": "uint256",
          "internalType": "uint256"
        }
      ]
    },
    {
      "type": "error",
      "name": "HeapEmpty",
      "inputs": []
    },
    {
      "type": "error",
      "name": "InsufficientPaymentAmount",
      "inputs": [
        {
          "name": "required",
          "type": "uint256",
          "internalType": "uint256"
        },
        {
          "name": "provided",
          "type": "uint256",
          "internalType": "uint256"
        }
      ]
    },
    {
      "type": "error",
      "name": "InvalidName",
      "inputs": [
        {
          "name": "name",
          "type": "string",
          "internalType": "string"
        }
      ]
    },
    {
      "type": "error",
      "name": "InvalidRegistrationPeriod",
      "inputs": []
    },
    {
      "type": "error",
      "name": "NoToken",
      "inputs": []
    },
    {
      "type": "error",
      "name": "NotInHeap",
      "inputs": []
    },
    {
      "type": "error",
      "name": "ReentrancyGuardReentrantCall",
      "inputs": []
    },
    {
      "type": "error",
      "name": "TransferFailed",
      "inputs": []
    },
    {
      "type": "error",
      "name": "Unauthorized",
      "inputs": []
    },
    {
      "type": "error",
      "name": "ZeroAddr",
      "inputs": []
    }
  ],
  "bytecode": {
    "object": "0x60c060409080825234620006e557620048658038038091620000228285620006e9565b8339810190606081830312620006e55780516001600160401b039390848111620006e557820191601f90848285011215620006e5578351958087116200046e57835194602090601f19986200007e838b888401160189620006e9565b80885282880198838284010111620006e55788836200009e93016200070d565b620000b885620000b083860162000730565b940162000730565b938551917f486f74446f6773204e616d696e67205365727669636500000000000000000000818401526201016960ed1b6036840152620001186039848b620001078c518092858501906200070d565b8101036019810186520184620006e9565b5f5b8851811015620001ba5762000130818a62000754565b51906001600160f81b0319606160f81b818416908110159081620001aa575b5062000169575b5062000163915062000745565b6200011a565b8c60f893841c0160ff8111620001965762000163931b165f1a6200018e828c62000754565b535f62000156565b634e487b7160e01b5f52601160045260245ffd5b603d60f91b101590505f6200014f565b5096899495969789620001eb828b518093620001dd87518092858501906200070d565b8101038084520182620006e9565b84518681116200046e575f546001968782811c92168015620006da575b858310146200044f57818784931162000687575b50849087831160011462000627575f926200061b575b50505f19600383901b1c191690861b175f555b8051908682116200046e578554908682811c9216801562000610575b848310146200044f578186849311620005bd575b5083908683116001146200055d575f9262000551575b50505f19600383901b1c191690851b1784555b8360075583600955835f905b620004b5575b50815115620004a4576001600160a01b03878116156200049357881615620004825781519485116200046e576008548481811c9116801562000463575b828210146200044f5783811162000406575b50809285116001146200039f5750839450908392915f9462000393575b50501b915f199060031b1c1916176008555b60805260a052516140ea90816200077b82396080518181816106bc0152818161133f015281816117fb01528181613291015281816135f00152818161391001528181613c210152613f8d015260a05181818161062d01528181610edb015261123b0152f35b0151925087806200031c565b92948490811660085f52845f20945f905b88838310620003eb5750505010620003d2575b505050811b016008556200032e565b01515f1960f88460031b161c19169055858080620003c3565b858701518855909601959485019487935090810190620003b0565b60085f52815f208480880160051c82019284891062000445575b0160051c019085905b82811062000439575050620002ff565b5f815501859062000429565b9250819262000420565b634e487b7160e01b5f52602260045260245ffd5b90607f1690620002ed565b634e487b7160e01b5f52604160045260245ffd5b885163e4c95c4b60e01b8152600490fd5b895163739c628b60e11b8152600490fd5b8851634e4e46eb60e01b8152600490fd5b82518110156200054b5784620004cc828562000754565b516001600160f81b03199290604160f81b8482169081101590816200053b575b5062000508575b506200050191925062000745565b90620002aa565b91508360f892831c019260ff84116200019657879362000501931b165f1a62000532828762000754565b538291620004f3565b602d60f91b101590508e620004ec565b620002b0565b015190508b806200028b565b908988941691845f52855f20925f5b87828210620005a657505084116200058d575b505050811b0184556200029e565b01515f1960f88460031b161c191690558b80806200057f565b8385015186558b979095019493840193016200056c565b909150865f52835f208680850160051c82019286861062000606575b918991869594930160051c01915b828110620005f757505062000275565b5f8155859450899101620005e7565b92508192620005d9565b91607f169162000261565b015190508c8062000232565b908a899416915f8052865f20925f5b8882821062000670575050841162000657575b505050811b015f5562000245565b01515f1960f88460031b161c191690558c808062000649565b8385015186558c9790950194938401930162000636565b9091505f8052845f208780850160051c820192878610620006d0575b918a91869594930160051c01915b828110620006c15750506200021c565b5f81558594508a9101620006b1565b92508192620006a3565b91607f169162000208565b5f80fd5b601f909101601f19168101906001600160401b038211908210176200046e57604052565b5f5b8381106200071f5750505f910152565b81810151838201526020016200070f565b51906001600160a01b0382168203620006e557565b5f198114620001965760010190565b90815181101562000766570160200190565b634e487b7160e01b5f52603260045260245ffdfe608060409080825260049182361015610016575f80fd5b5f91823560e01c90816296c06714611e2d5750806301ffc9a714611d8857806306fdde0314611d02578063081812fc14611cc6578063095ea7b314611be95780631762655914611bc157806319fbe87e14611a3f5780631f21b04f146119e857806323b872dd14611975578063259701151461193857806326449235146118d657806326b8b9ee146118b857806326d389271461187d5780632811aa5a1461185c57806329aa4f51146118415780632a55205a146117a85780632d5514321461170357806332752b09146116bd578063364460f31461165957806342842e0e1461161d578063463b08db146116025780634889e1921461156757806350b0467f146115465780635a018e6a146114545780636352211e1461142357806370a08231146113cb5780637c19c06514610d5b57806385e486c8146113b057806391f010821461138f57806392954aa61461136e57806394cb88ac1461132b57806395d89b411461126a578063a001e0d514611227578063a22cb46514611185578063acf1a84114610d7b578063b0dbf47d14610d60578063b5301ced14610d5b578063b739f1cc14610d3a578063b88d4fde14610c73578063bed3d51014610af4578063c87b56dd14610a8c578063cbeb5f3d14610a5e578063e985e9c514610a11578063ea87152b146103da5763fa4de6c914610210575f80fd5b346103d657602090816003193601126103d257833561022d612887565b801580156103c8575b6103b857835b600e80549081158015806103af575b15610394576103845761025c6128c6565b506102656128c6565b509061028661027f600180940154928951918280926120d5565b0390611f99565b4211156103605761029e6102986128c6565b50612ea4565b51925f19810190811161034d576102b76102c6916128aa565b506102c06128c6565b90612b43565b6102d76102d16128c6565b50612b69565b556102e0612a2a565b826102ea8361204b565b5554610340575b835181516103028183898601611eaf565b600a90820190815281900386019020546001600160a01b0316610326575b5061023c565b9461033461033992966130d2565b61229b565b935f610320565b610348612de1565b6102f1565b634e487b7160e01b855260118a52602485fd5b505050945050915f80516020614075833981519152925b51908152a1600160075580f35b8451630835e4a560e01b81528890fd5b505050945050915f8051602061407583398151915292610377565b5084881061024b565b81516321af709760e21b81528590fd5b5060148111610236565b8280fd5b5080fd5b5091906103e6366121d1565b949091936103f2612887565b610405610400368588611fd7565b613ddf565b156109ed5781519280868537600a8185019081528490036020908101909420546001600160a01b0390811661097d575b8715808015610973575b610963576104578961045236868c611fd7565b613d5b565b80341061094757506301e13380808a02998a04141715610934578495969742906104809161227a565b92845161048c81611f21565b33815288878201918183528781018781528c878a60608501954287526009549e8f6104b68161229b565b6009558b845186888237600a87820190815281900384019020985189546001600160a01b031916911617885589516001600160601b0398906104fa908a16826122a9565b87516001820155895190600201558252600b9052209161051992612327565b8a8d888b519182378b818a8101600c81520301902055600d54600160401b9081811015610921578060016105509201600d55612071565b61090f578e6105638a8261058294612327565b600d548c518e8c848337818d8101601081520301902055893691611fd7565b908a519061058f82611f50565b8282528a8d830152600e54908110156108fc57906105b68260016105bc9401600e556128aa565b906128f8565b600e545f198101918183116108e957906105d96105df939261204b565b55612d82565b88516105ea81611f7e565b8c815233156108d257866105fe8d33613735565b166108bb57333b6107b2575b506106558c93928e925193519551168a51958694859463f464601d60e01b86528b7f0000000000000000000000000000000000000000000000000000000000000000918b8801612444565b038173__$14745b3d9956b91f33c1ff89a32fb3f261$__5af49081156107a85790610688918a91610786575b5088612631565b845191838a888501376106ba836106ac6021878301601760f91b8c82015201612521565b03601f198101855284611f99565b7f00000000000000000000000000000000000000000000000000000000000000001690813b156107825791889161070793838851809681958294631f12703f60e01b84523390840161260f565b03925af1801561077857610756575b505f805160206140358339815191529394959661073234613f54565b818451928392833781015f81520390209382519586528501523393a3600160075580f35b956107705f80516020614035833981519152959697611f6b565b959493610716565b84513d89823e3d90fd5b8880fd5b6107a291503d808c833e61079a8183611f99565b8101906123e6565b5f610681565b86513d8b823e3d90fd5b946107fa8b9e9b80839f9c9e9b9a99988f8d8f9151809681948293630a85bd0160e11b9a8b855233908501528560248501526044840152608060648401526084830190611ed0565b0391335af19182918d93610876575b505061083f578e8e8e61081a61273d565b8051939084610839578251633250574960e11b81523381860152602490fd5b84925001fd5b63ffffffff9b9e9b60e09e9798999a9d9b9e1b16036108605761065561060a565b8851633250574960e11b81523381870152602490fd5b9080929350813d83116108b4575b61088e8183611f99565b810103126108b057516001600160e01b0319811681036108b057908f80610809565b8b80fd5b503d610884565b89516339e3563760e11b81528087018e9052602490fd5b8951633250574960e11b81528087018e9052602490fd5b634e487b7160e01b8f526011885260248ffd5b634e487b7160e01b8f526041885260248ffd5b634e487b7160e01b8e528d875260248efd5b634e487b7160e01b8e526041875260248efd5b634e487b7160e01b865260118352602486fd5b84604491875191635a3f8cb160e01b8352820152346024820152fd5b8451636ee756d360e11b81528490fd5b50600a891161043f565b60018451838982378681858101600a81520301902001544211156109c6576109ae6109a936848a611fd7565b612b86565b6109c16109bc36848a611fd7565b6130d2565b610435565b5085906109e99293519485946350cb29b360e01b8652850152602484019161225a565b0390fd5b9051637f19f48d60e01b8152602091810191909152806109e960248201848761225a565b50346103d657806003193601126103d65760ff81602093610a30611ef5565b610a38611f0b565b6001600160a01b0391821683526005875283832091168252855220549151911615158152f35b50346103d657816003193601126103d65760209051734e08ff4ce98523f7b1299aae51f515ba64baf6798152f35b5082346103d25760203660031901126103d25790610af092610acb9235610ab281612220565b5081526006602052610ad28282208351948580926120d5565b0384611f99565b8151610add81611f7e565b5251918291602083526020830190611ed0565b0390f35b50346103d657816003193601126103d657610b0d612887565b610b15612887565b815b600e8054908115801580610c69575b15610c4d57610c3d57610b376128c6565b50610b406128c6565b5090610b5a61027f600180940154928851918280926120d5565b421115610c1957610b6c6102986128c6565b51925f198101908111610c06576102b7610b85916128aa565b610b906102d16128c6565b55610b99612a2a565b82610ba38361204b565b5554610bf9575b8251815190602091610bbf8183858701611eaf565b600a9082019081528190039091019020546001600160a01b0316610be4575b50610b17565b92610334610bf292946130d2565b915f610bde565b610c01612de1565b610baa565b634e487b7160e01b855260118852602485fd5b50505092505f805160206140758339815191529160209151908152a1600160075580f35b8351630835e4a560e01b81528690fd5b50505092505f8051602061407583398151915291602091610377565b5060148610610b26565b50346103d65760803660031901126103d657610c8d611ef5565b92610c96611f0b565b604435916064356001600160401b038111610d365736602382011215610d3657610cc99036906024818501359101611fd7565b936001600160a01b039083821615610d2057610ce6338686613a67565b9180891690831603610d0357505050610d0093943361276c565b80f35b516364283d7b60e01b81529182916109e99186908a908501612f3d565b51633250574960e11b8152808301879052602490fd5b8580fd5b50346103d657816003193601126103d65760209051662aa1efb94e00008152f35b6121b6565b50346103d657816003193601126103d6576020905160198152f35b5082610d86366121d1565b939192610d91612887565b610d9f610400368487611fd7565b1561116257825182858237600a8382019081528190036020019020805491906001600160a01b0383168015611141573314801590611134575b6111265786159283801561111c575b61110c57610dfa8861045236888b611fd7565b8034106110f05750600197888301948554906301e133808084029384041417156110dd5790610e289161227a565b845560a01c6001600160601b0381146110ca5787610e479101826122a9565b8254610e5c610e5736878a611fd7565b61204b565b549081156110ba575f1982019182116110a75788610e79836128aa565b50015490808a610e88856128aa565b50015581811015610fa7575050610e9e90612d82565b878487610f02885183838237602081858101600c81520301902054948754906002810154905460a01c918b51988996879663f464601d60e01b88527f0000000000000000000000000000000000000000000000000000000000000000928801612444565b038173__$14745b3d9956b91f33c1ff89a32fb3f261$__5af4918215610f9d5790610f3592918992610f81575b50612631565b610f3e34613f54565b54928183519283928337810186815203902090519182527f93b77696dfb877618deeade6a76fd259d63c2600487f64a1bf126886c0db218e60203393a360075580f35b610f969192503d808b833e61079a8183611f99565b9089610f2f565b85513d8a823e3d90fd5b11610fb3575b50610e9e565b600e5481895b610fc5575b5050610fad565b808a1b6001600160ff1b0382168203611094578a81018082116110815760028201809211611081579081848d9594931080611060575b611058575b5082811080611037575b61102f575b50808414611029578361102191612ed1565b829091610fb9565b50610fbe565b93508c61100f565b5083611042826128aa565b5001548461104f876128aa565b5001541161100a565b94508d611000565b508461106b826128aa565b50015485611078886128aa565b50015411610ffb565b634e487b7160e01b8d526011875260248dfd5b634e487b7160e01b8c526011865260248cfd5b634e487b7160e01b8a526011845260248afd5b865163075cb34d60e31b81528490fd5b634e487b7160e01b895260118352602489fd5b634e487b7160e01b8b526011855260248bfd5b83604491885191635a3f8cb160e01b8352820152346024820152fd5b8551636ee756d360e11b81528390fd5b50600a8811610de7565b5083516282b42960e81b8152fd5b5060018101544211610dd8565b855163a79983f560e01b8152602081850152806109e960248201888b61225a565b6109e9846020938551948594637f19f48d60e01b8652850152602484019161225a565b508290346103d257806003193601126103d2576111a0611ef5565b9060243591821515809303611223576001600160a01b031692831561120e5750338452600560205280842083855260205280842060ff1981541660ff8416179055519081527f17307eab39ab6107e8899845ad3d59bd9653f200f220920489ca2b5937696c3160203392a380f35b836024925191630b61174360e31b8352820152fd5b8480fd5b50346103d657816003193601126103d657517f00000000000000000000000000000000000000000000000000000000000000006001600160a01b03168152602090f35b50346103d657816003193601126103d65780519082600180549061128d8261209d565b8086529181811690811561130357506001146112c8575b5050506112b682610af0940383611f99565b51918291602083526020830190611ed0565b80955082526020948583205b8284106112f05750505082610af0946112b692820101946112a4565b80548685018801529286019281016112d4565b610af097506112b69450602092508693915060ff191682840152151560051b820101946112a4565b50346103d657816003193601126103d657517f00000000000000000000000000000000000000000000000000000000000000006001600160a01b03168152602090f35b50346103d657816003193601126103d65760209051660e35fa931a00008152f35b50346103d657816003193601126103d65760209051661550f7dca700008152f35b50346103d657816003193601126103d65760209051600a8152f35b509034611420576020366003190112611420576001600160a01b036113ee611ef5565b1692831561140b5750806020938392526003845220549051908152f35b91516322718ad960e21b815291820152602490fd5b80fd5b509034611420576020366003190112611420575061144360209235612220565b90516001600160a01b039091168152f35b5091346103d657816003193601126103d657600d54906001600160401b038211611533575082519160209261148e848460051b0182611f99565b8281528381019283600d845285842084915b83831061150157505050508451938085019181865251809252858501958260051b8601019392955b8287106114d55785850386f35b9091929382806114f1600193603f198a82030186528851611ed0565b96019201960195929190926114c8565b60018881928b9a97989a516115218161151a81896120d5565b0382611f99565b815201920192019190969493966114a0565b634e487b7160e01b835260419052602482fd5b50346103d657816003193601126103d65760209051662386f26fc100008152f35b509034611420576020366003190112611420578235906001600160401b038211611420575061159d608093602092369101611e7e565b919082845193849283378101600a8152030190209060608151916115c083611f21565b83549360018060a01b0385169485855260a01c938460208201526002600183015492838584015201549384910152815194855260208501528301526060820152f35b50346103d657816003193601126103d6576020905160fa8152f35b50346103d65761162c36612166565b919483519361163a85611f7e565b8585526001600160a01b039083821615610d2057610ce6338686613a67565b509034611420576020366003190112611420578235906001600160401b038211611420575061169060809361169692369101611e7e565b9061303c565b84516001600160a01b03948516815260208101939093529216928101929092526060820152f35b509034611420576020366003190112611420578235906001600160401b03821161142057506116f46020936116fa92369101611e7e565b90612f60565b90519015158152f35b50346103d657816003193601126103d657805190826008546117248161209d565b80855290600190818116908115611303575060011461174f575050506112b682610af0940383611f99565b60088352602095507ff3f7a9fe364faab93b216da50a3214154f22a0a2b415b23a84c8169e8b636ee35b8284106117955750505082610af0946112b692820101946112a4565b8054868501880152928601928101611779565b509190346114205782600319360112611420578135815260026020528281205460243592906001600160a01b0316156118335760fa83029280840460fa149015171561182057835180610af061271086047f00000000000000000000000000000000000000000000000000000000000000008361219b565b634e487b7160e01b825260119052602490fd5b83516379d93f4960e01b8152fd5b50346103d657816003193601126103d6576020905160038152f35b50346103d657816003193601126103d65760209051661c6bf5263400008152f35b5082346103d25760203660031901126103d257906112b681610af0946118b194358152600b602052208251938480926120d5565b0383611f99565b50346103d657816003193601126103d657602090600d549051908152f35b50346103d6576080906118ff60206118ed3661200d565b81845193828580945193849201611eaf565b8101600a81520301902090815491600260018201549101549180519360018060a01b038116855260a01c60208501528301526060820152f35b509034611420576020366003190112611420578235906001600160401b038211611420575061196f60209361144392369101611e7e565b90612fd8565b5082346103d25761198536612166565b91936001600160a01b039291838116156119d1576119a590833391613a67565b92808616908416036119b5578580f35b516364283d7b60e01b81529384936109e9939291908501612f3d565b8151633250574960e11b8152808601889052602490fd5b50919034611420576020366003190112611420578135600d548110156103d657611a1190612071565b929092611a2d578351610af090856112b6826118b181896120d5565b634e487b7160e01b8252819052602490fd5b508290346103d257806003193601126103d25781356001600160401b038111611bbd57611a6f9036908401611e7e565b611a7a929192611f0b565b92611a83612887565b825182828237600a838201908152819003602001902080546001600160a01b039391908416908115908115611baf575b50611b8e573303611b7f57828516928315611b6f57611ae7855183858237602081858101600c815203019020548097613735565b90811680611b06578551637e27328960e01b8152808901889052602490fd5b8789969288923303611b53575050508190519283378101908382528033920390207fb93e5ab0838892891d936aa278bd882aaa1c862433c9ff605a2fb0cd0b9d4e118480a4600160075580f35b6109e99084519384936364283d7b60e01b855233908501612f3d565b845163ae9954c360e01b81528790fd5b83516282b42960e81b81528690fd5b845163a79983f560e01b8152602081890152806109e960248201858761225a565b600191500154421189611ab3565b8380fd5b50346103d657602090611bd7826118ed3661200d565b8101600c815203019020549051908152f35b508290346103d257806003193601126103d257611c04611ef5565b91602435611c1181612220565b33151580611cb3575b80611c8a575b611c74576001600160a01b039485169482918691167f8c5be1e5ebec7d5bd14f71427d1e84f3dd0314c0f7b2291e5b200ac8c7c3b9258880a48452602052822080546001600160a01b031916909117905580f35b835163a9fbf51f60e01b81523381850152602490fd5b506001600160a01b03811686526005602090815284872033885290528386205460ff1615611c20565b506001600160a01b038116331415611c1a565b5082346103d25760203660031901126103d257918260209335611ce881612220565b50825283528190205490516001600160a01b039091168152f35b50346103d657816003193601126103d657805190828054611d228161209d565b808552906001908181169081156113035750600114611d4d575050506112b682610af0940383611f99565b94508180526020948583205b828410611d755750505082610af0946112b692820101946112a4565b8054868501880152928601928101611d59565b5082346103d25760203660031901126103d257359063ffffffff60e01b82168092036103d2576020925063152a902d60e11b8214918215611dcd575b50519015158152f35b909150632483248360e11b8114908115611dea575b509083611dc4565b6380ac58cd60e01b811491508115611e1c575b8115611e0b575b5083611de2565b6301ffc9a760e01b14905083611e04565b635b5e139f60e01b81149150611dfd565b82858534611420576020366003190112611420578135906001600160401b038211611420575092602081611e676001948397369101611e7e565b809183378101600a81520301902001549051908152f35b9181601f84011215611eab578235916001600160401b038311611eab5760208381860195010111611eab57565b5f80fd5b5f5b838110611ec05750505f910152565b8181015183820152602001611eb1565b90602091611ee981518092818552858086019101611eaf565b601f01601f1916010190565b600435906001600160a01b0382168203611eab57565b602435906001600160a01b0382168203611eab57565b608081019081106001600160401b03821117611f3c57604052565b634e487b7160e01b5f52604160045260245ffd5b604081019081106001600160401b03821117611f3c57604052565b6001600160401b038111611f3c57604052565b602081019081106001600160401b03821117611f3c57604052565b601f909101601f19168101906001600160401b03821190821017611f3c57604052565b6001600160401b038111611f3c57601f01601f191660200190565b929192611fe382611fbc565b91611ff16040519384611f99565b829481845281830111611eab578281602093845f960137010152565b6020600319820112611eab57600435906001600160401b038211611eab5780602383011215611eab5781602461204893600401359101611fd7565b90565b6020612064918160405193828580945193849201611eaf565b8101600f81520301902090565b600d5481101561208957600d5f5260205f2001905f90565b634e487b7160e01b5f52603260045260245ffd5b90600182811c921680156120cb575b60208310146120b757565b634e487b7160e01b5f52602260045260245ffd5b91607f16916120ac565b905f92918054916120e58361209d565b9182825260019384811690815f146121435750600114612106575b50505050565b90919394505f52602092835f2092845f945b83861061212f57505050500101905f808080612100565b805485870183015294019385908201612118565b9294505050602093945060ff191683830152151560051b0101905f808080612100565b6060906003190112611eab576001600160a01b03906004358281168103611eab57916024359081168103611eab579060443590565b6001600160a01b039091168152602081019190915260400190565b34611eab575f366003190112611eab57602060405160148152f35b6040600319820112611eab57600435906001600160401b038211611eab576121fb91600401611e7e565b909160243590565b5f90815260046020526040902080546001600160a01b0319169055565b5f818152600260205260409020546001600160a01b0316908115612242575090565b60249060405190637e27328960e01b82526004820152fd5b908060209392818452848401375f828201840152601f01601f1916010190565b9190820180921161228757565b634e487b7160e01b5f52601160045260245ffd5b5f1981146122875760010190565b80546001600160a01b031660a09290921b6001600160a01b031916919091179055565b8181106122d7575050565b5f81556001016122cc565b9190601f81116122f157505050565b61231b925f5260205f20906020601f840160051c8301931061231d575b601f0160051c01906122cc565b565b909150819061230e565b9092916001600160401b038111611f3c5761234c81612346845461209d565b846122e2565b5f601f821160011461238357819293945f92612378575b50508160011b915f199060031b1c1916179055565b013590505f80612363565b601f198216948382526020918281209281905b8882106123ce575050836001959697106123b5575b505050811b019055565b01355f19600384901b60f8161c191690555f80806123ab565b80600184968294958701358155019501920190612396565b602081830312611eab578051906001600160401b038211611eab570181601f82011215611eab57805161241881611fbc565b926124266040519485611f99565b81845260208284010111611eab576120489160208085019101611eaf565b939694919061245e9196939660c0865260c086019161225a565b956020848803818601525f906008546124768161209d565b808b529060019081811690811561250057506001146124c2575b5050506001600160a01b039096166040850152606084015260808301526001600160601b031660a09190910152909150565b91925060085f52825f20915f925b8284106124ed5750505060a0959697980101879695945f80612490565b8054848d018601529284019281016124d0565b60ff1916848d01525098998a995090151560051b0101905060a05f80612490565b6008545f92916125308261209d565b9160019081811690811561257e575060011461254b57505050565b909192935060085f52602090815f20905f915b85831061256d57505050500190565b80548584015291830191810161255e565b60ff191683525050811515909102019150565b5f9291815461259f8161209d565b926001918083169081156125f457506001146125bb5750505050565b9091929394505f52602090815f20905f915b8583106125e3575050505001905f808080612100565b8054858401529183019181016125cd565b60ff191684525050508115159091020191505f808080612100565b6001600160a01b03909116815260406020820181905261204892910190611ed0565b5f818152600660209081526040822084519495949193929091906001600160401b0382116127295761266d82612667855461209d565b856122e2565b8490601f83116001146126b957905f805160206140958339815191529697836126ae575b50508160011b915f199060031b1c19161790555b604051908152a1565b015190505f80612691565b9196601f198816848452868420935b81811061271257509160019391895f80516020614095833981519152999a94106126fa575b505050811b0190556126a5565b01515f1960f88460031b161c191690555f80806126ed565b9293876001819287860151815501950193016126c8565b634e487b7160e01b81526041600452602490fd5b3d15612767573d9061274e82611fbc565b9161275c6040519384611f99565b82523d5f602084013e565b606090565b9293823b61277c575b5050505050565b6127c09060018060a01b038094169560405194859481630a85bd0160e11b988988521660048701521660248501526044840152608060648401526084830190611ed0565b03906020815f938185885af19082908261283f575b505061280d57826127e461273d565b805191908261280657604051633250574960e11b815260048101839052602490fd5b6020915001fd5b6001600160e01b0319160361282757505f80808080612775565b60249060405190633250574960e11b82526004820152fd5b909192506020813d821161287f575b8161285b60209383611f99565b810103126103d65751906001600160e01b0319821682036114205750905f806127d5565b3d915061284e565b600260075414612898576002600755565b604051633ee5aeb560e01b8152600490fd5b600e5481101561208957600e5f5260205f209060011b01905f90565b600e541561208957600e5f9081527fbb7b4a454dc3493923482f07822329ed19e8244eff582cc204f8554c3620c3fd91565b909291926129cf57825180519093906001600160401b038111611f3c5761292381612667855461209d565b6020601f82116001146129675790806020939260019596975f9261295c575b50505f19600383901b1c191690841b1784555b0151910155565b015190505f80612942565b601f19821690845f52805f20915f5b8181106129b7575091839160019697986020969588951061299f575b505050811b018455612955565b01515f1960f88460031b161c191690555f8080612992565b9192602060018192868c015181550194019201612976565b634e487b7160e01b5f525f60045260245ffd5b6129ec815461209d565b90816129f6575050565b81601f5f9311600114612a07575055565b908083918252612a26601f60208420940160051c8401600185016122cc565b5555565b600e548015612a57575f1901612a3f816128aa565b6129cf57600181612a505f936129e2565b0155600e55565b634e487b7160e01b5f52603160045260245ffd5b90808214612b3f57612a7d815461209d565b906001600160401b038211611f3c578190612aa282612a9c865461209d565b866122e2565b5f90601f8311600114612ad5575f92612aca5750508160011b915f199060031b1c1916179055565b015490505f80612363565b81526020808220858352818320935090601f1985169083905b828210612b26575050908460019594939210612b0e57505050811b019055565b01545f1960f88460031b161c191690555f80806123ab565b8495819295850154815560018091019601940190612aee565b5050565b91906129cf57808203612b54575050565b600181612b62829385612a6b565b0154910155565b6020612b7b9160405192838092612591565b600f81520301902090565b6040519080519160208181840194612b9f818388611eaf565b8101600f81520301902054908115612d70575f19828101929081841161228757600e54818101908111612287578414612d3e57600e5490810190811161228757612beb612bf5916128aa565b506102c0856128aa565b612c106020612c03856128aa565b5060405192838092612591565b600f81520301902055612c21612a2a565b612c3360405193849251928391611eaf565b8201600f81528260205f9485930301902055600e5491828210612c5557505050565b8193915b600181811b906001600160ff1b0383168303612d2a57808201808311612d165760028301809311612d165786811080612cf5575b612ced575b508582109081612cca575b50612cc2575b50808514612cbb5784612cb591612ed1565b83612c59565b5050915050565b94505f612ca3565b809150612cd6836128aa565b50015490612ce3886128aa565b500154115f612c9d565b96505f612c92565b5081612d00826128aa565b50015482612d0d8a6128aa565b50015411612c8d565b634e487b7160e01b85526011600452602485fd5b634e487b7160e01b84526011600452602484fd5b5050612d6391505f92602091612d52612a2a565b604051938492839251928391611eaf565b8101600f81520301902055565b60405163075cb34d60e31b8152600490fd5b805b612d8b5750565b5f19810190808211612dcd57600191821c9180612da7836128aa565b50015490612db4846128aa565b5001541115612b3f5781612dc791612ed1565b80612d84565b60245f634e487b7160e01b81526011600452fd5b600e545f91825b600181811b906001600160ff1b03831683036122875780820180831161228757600283018093116122875785811080612e83575b612e7b575b508482109081612e58575b50612e50575b50808414612e4a5783612e4491612ed1565b82612de8565b50915050565b93505f612e32565b809150612e64836128aa565b50015490612e71876128aa565b500154115f612e2c565b95505f612e21565b5081612e8e826128aa565b50015482612e9b896128aa565b50015411612e1c565b90604051612eb181611f50565b602060018294604051612ec88161151a81856120d5565b84520154910152565b612ef5612ee0610298836128aa565b612eec612beb856128aa565b6105b6846128aa565b6001810190818111612287576020612c03612f0f926128aa565b600f815203019020556001810190818111612287576020612c03612f32926128aa565b600f81520301902055565b6001600160a01b0391821681526020810192909252909116604082015260600190565b612f6e610400368484611fd7565b15612fd2576020908260405193849283378101600a815203019020604051612f9581611f21565b81549060018060a01b0382169182825260a01c602082015260606002600185015494856040850152015491015215612fcc57421190565b50600190565b50505f90565b6020908260405193849283378101600a81520301902060405190612ffb82611f21565b80549160018060a01b0383169283825260a01c60208201526060600260018401549384604085015201549101528115612fd25742116130375790565b505f90565b91909160405183828237602081858101600a815203019020926040519161306283611f21565b84549260018060a01b0384169384825260a01c6020820152606060026001880154978860408501520154910152821580156130c9575b6130bb576020908260405193849283378101600c81520301902054909291309190565b505f93508392839250829150565b50428510613098565b5f60408051928051916020948581818501956130ef818389611eaf565b8101600a815203019020600181015442111561372d5781518681855161311681838a611eaf565b8101600c815203019020549560018060a01b03809254169686818852600b835261151a61314a868a208751928380926120d5565b805180151580613726575b6136d6575b508289526002845284868a20541690811515806136cf575b806136c5575b613584575b5050818152600283528181858782205416926134f3575b8215928184156134d2575b6134bc575b8282526002865287822080546001600160a01b0319168884161790555f805160206140558339815191528280a46134a55786600285518481806131eb8c8c51928391611eaf565b8101600a81520301902082815582600182015501558652600b81526132118387206129e2565b8583518281875161322381838c611eaf565b8101600c8152030190205582518181865161323f81838b611eaf565b81016010815203019020548061334a575b509061328f6021926132818551948592601760f91b8951613275818d85890190611eaf565b85019182015201612521565b03601f198101845283611f99565b7f00000000000000000000000000000000000000000000000000000000000000001690813b15610d36576132dc8692839285519485809481936327f429eb60e01b83528d6004840161260f565b03925af1801561334057613318575b505190515f805160206140158339815191529282919061330e9082908490611eaf565b81010390209180a3565b915f8051602061401583398151915293919461333661330e94611f6b565b94919350916132eb565b82513d87823e3d90fd5b5f199080820181811161349157600d5483810190811161347d5761336d90612071565b5061337782612071565b6134695761339e9261338d879361339293612a6b565b612071565b50875192838092612591565b601081520301902055600d54801561345557016133ba81612071565b613441579161328f9188846133d2602197965461209d565b80613405575b505050600d558785518281806133f28c8c51928391611eaf565b8101601081520301902055919250613250565b82601f821160011461341d575050555b885f806133d8565b909180825261343a601f878420940160051c8401600185016122cc565b5555613415565b634e487b7160e01b88526004889052602488fd5b634e487b7160e01b88526031600452602488fd5b634e487b7160e01b8b5260048b905260248bfd5b634e487b7160e01b8a52601160045260248afd5b634e487b7160e01b89526011600452602489fd5b602490845190637e27328960e01b82526004820152fd5b81805260038652878220600181540190556131a4565b506134dc83612203565b8082526003865287822080545f190190558161319f565b90508080613543575b15613508578290613194565b8591613526578151637e27328960e01b815260048101849052602490fd5b905163177e802f60e01b81529182916109e991906004840161219b565b5081158015613566575b806134fc575082815260048452848682205416156134fc565b50818152600584528581208582168a52845260ff868a20541661354d565b6135ed6135ce916135df60218a518351908a81818701936135a6818387611eaf565b8101600a81520301902060018060a01b031981541690558b519586945180928c870190611eaf565b8301601760f91b8a82015201612521565b03601f198101835282611f99565b857f00000000000000000000000000000000000000000000000000000000000000001691823b156136c1578a82613638928a5193849283926327f429eb60e01b84526004840161260f565b038183875af180156136b7576136a4575b50813b156103d257613674839283928951948580948193631f12703f60e01b8352836004840161260f565b03925af1801561369a579082911561317d5761368f90611f6b565b61142057805f61317d565b86513d84823e3d90fd5b6136af919350611f6b565b88915f613649565b88513d8d823e3d90fd5b8a80fd5b5080511515613178565b5089613172565b60018751916136e88184898701611eaf565b820191600a83528681429403019020015410613704575f61315a565b836109e98751928392633b81c60360e01b845260048401526024830190611ed0565b5089613155565b505050505050565b9061375a915f90828252602091600b83528060406137618183208251988980926120d5565b0388611f99565b8487805180151580613a55575b613a01575b50505085825260028552808220546001600160a01b039790881690811515806139f6575b806139ec575b6138aa575b50508582526002855286818320541696879361382a575b60029084955f805160206140558339815191529561380b575b1695866137f5575b87845252812080546001600160a01b0319168517905580a490565b86845260038152828420600181540190556137da565b61381489612203565b8685526003885283852080545f190190556137d2565b91939092508380613869575b156138455792909186926137b9565b5050915083155f14613526578151637e27328960e01b815260048101849052602490fd5b508615801561388c575b8061383657508584526004855281838520541615613836565b50868452600585528284208285165f52855260ff835f205416613873565b82935061390d906135df60216138fc9495518351908b81818701936138d0818387611eaf565b8101600a8152030190208d8b1660018060a01b031982541617905587519586945180928d870190611eaf565b8301601760f91b8b82015201612521565b877f00000000000000000000000000000000000000000000000000000000000000001691823b1561122357848261395892865193849283926327f429eb60e01b84526004840161260f565b038183875af180156139e2576139cf575b50813b15611bbd57613994849283928551948580948193631f12703f60e01b83528b6004840161260f565b03925af180156139c3579083916139af575b809291926137a2565b6139b890611f6b565b6103d657815f6139a6565b505051903d90823e3d90fd5b6139db90949194611f6b565b925f613969565b84513d87823e3d90fd5b508051151561379d565b508886161515613797565b8394509081613a198493600196518096819501611eaf565b8101600a81520301902001544211613a3557819084875f613773565b51633b81c60360e01b815260048101849052806109e96024820188611ed0565b506001600160a01b038716151561376e565b9161375a925f91838352602092600b84526040613a8b8183208251988980926120d5565b8685815180151580613d49575b613cfa575b50505085825260028552808220546001600160a01b039790881690869082151580613cef575b80613ce5575b613bbe575b505050858252600285528681832054169683818995168015159081613b2b575b50505060029084955f805160206140558339815191529561380b571695866137f55787845252812080546001600160a01b0319168517905580a490565b90809293959794965091613b70575b5015613b4d579182808995939694613aee565b83879189155f14613526578151637e27328960e01b815260048101849052602490fd5b89811491508115613ba0575b8115613b8a575b505f613b3a565b905087865260048752838587205416145f613b83565b905088865260058752848620815f52875260ff855f20541690613b7c565b613c1e906135df602186518d845191878181880194613bde818388611eaf565b8101600a815203019020908c1660018060a01b0319825416179055613c0d885196879551928391870190611eaf565b8301601760f91b8c82015201612521565b887f00000000000000000000000000000000000000000000000000000000000000001691823b15611223578482613c6992865193849283926327f429eb60e01b84526004840161260f565b038183875af180156139e257613cd2575b50813b15611bbd57613ca5849283928551948580948193631f12703f60e01b83528c6004840161260f565b03925af180156139c357908391613cbe575b8690613ace565b613cc790611f6b565b6103d657815f613cb7565b613cde90949194611f6b565b925f613c7a565b5080511515613ac9565b508987161515613ac3565b60019281613d0f849387518096819501611eaf565b8101600a81520301902001544211613d295786855f613a9d565b51633b81c60360e01b815260048101859052806109e96024820189611ed0565b506001600160a01b0387161515613a98565b5160038103613d815750662aa1efb94e00005b8181029181830414901517156122875790565b60048103613d975750662386f26fc10000613d6e565b60058103613dad5750661c6bf526340000613d6e565b600603613dc157661550f7dca70000613d6e565b660e35fa931a0000613d6e565b908151811015612089570160200190565b805160038110908115613f49575b50613037575f5b8151811015613f42576001600160f81b031980613e118385613dce565b5116821591828093613f35575b613f2c5784515f19939084810190811161228757851480613f1f575b613f1557602d60f81b92808403613e8b5750159283613e69575b505050612fd257613e649061229b565b613df4565b90919250830183811161228757613e809085613dce565b5116145f8080613e54565b93505050600360fc1b821015905080613f07575b159081613ee2575b81613ebb575b50612fd257613e649061229b565b606160f81b811015915081613ed3575b50155f613ead565b603d60f91b101590505f613ecb565b9050604160f81b81101580613ef9575b1590613ea7565b50602d60f91b811115613ef2565b50603960f81b811115613e9f565b5050505050505f90565b50602d60f81b8314613e3a565b50505050505f90565b50602d60f81b8214613e1e565b5050600190565b60149150115f613ded565b60198102818104601914821517156122875760649004808203918083116122875781613fd9575b03613f835750565b5f908190819081907f00000000000000000000000000000000000000000000000000000000000000006001600160a01b03165af1613fbf61273d565b5015613fc757565b6040516312171d8360e31b8152600490fd5b5f80808085734e08ff4ce98523f7b1299aae51f515ba64baf6795af1613ffd61273d565b50613f7b576040516312171d8360e31b8152600490fdfece2ef1eacc2a2d54c451fa15fd66d072ca91d3ed5640e61d655400b6f9c1194087fd548bf5794610496e606965e724cec5c33f621c084067a46c43a81a1887e7ddf252ad1be2c89b69c2b068fc378daa952ba7f163c4a11628f55a4df523b3ef8196751bf8febb17a48c6b460fdf6f322bb4570aff67923580e67c6ae56e5798f8e1a15aba9398e019f0b49df1a4fde98ee17ae345cb5f6b5e2c27f5033e8ce7a26469706673582212204f9966de5cb5b7615f8c76bbe91ab8b44e94c32accc430741a347bc81f5268ef64736f6c63430008140033",
    "linkReferences": {
      "src/TokenURILibrary.sol": {
        "TokenURILibrary": [
          {
            "start": 3540,
            "length": 20
          },
          {
            "start": 5761,
            "length": 20
          }
        ]
      }
    }
  },
  "methodIdentifiers": {
    "DEV_FEE_PERCENTAGE()": "b0dbf47d",
    "MAX_CLEANUP_BATCH()": "7c19c065",
    "MAX_DOMAIN_LENGTH()": "b5301ced",
    "MAX_REGISTRATION_YEARS()": "85e486c8",
    "MIN_DOMAIN_LENGTH()": "29aa4f51",
    "PRICE_3_CHAR()": "b739f1cc",
    "PRICE_4_CHAR()": "50b0467f",
    "PRICE_5_CHAR()": "2811aa5a",
    "PRICE_6_CHAR()": "91f01082",
    "PRICE_7_PLUS()": "92954aa6",
    "ROYALTY_PERCENTAGE()": "463b08db",
    "allDomains(uint256)": "1f21b04f",
    "approve(address,uint256)": "095ea7b3",
    "balanceOf(address)": "70a08231",
    "checkAndBurnExpiredDomains()": "bed3d510",
    "cleanupExpiredDomains(uint256)": "fa4de6c9",
    "devFeeRecipient()": "cbeb5f3d",
    "domainToToken(string)": "17626559",
    "domains(string)": "26449235",
    "getAllDomains()": "5a018e6a",
    "getApproved(uint256)": "081812fc",
    "getDomainExpiration(string)": "0096c067",
    "getDomainInfo(string)": "4889e192",
    "getDomainOwner(string)": "25970115",
    "getTotalDomainCount()": "26b8b9ee",
    "hnsManager()": "94cb88ac",
    "isApprovedForAll(address,address)": "e985e9c5",
    "isDomainAvailable(string)": "32752b09",
    "name()": "06fdde03",
    "ownerOf(uint256)": "6352211e",
    "register(string,uint256)": "ea87152b",
    "renew(string,uint256)": "acf1a841",
    "resolveDomain(string)": "364460f3",
    "royaltyInfo(uint256,uint256)": "2a55205a",
    "safeTransferFrom(address,address,uint256)": "42842e0e",
    "safeTransferFrom(address,address,uint256,bytes)": "b88d4fde",
    "setApprovalForAll(address,bool)": "a22cb465",
    "supportsInterface(bytes4)": "01ffc9a7",
    "svgLibrary()": "a001e0d5",
    "symbol()": "95d89b41",
    "tld()": "2d551432",
    "tokenToDomain(uint256)": "26d38927",
    "tokenURI(uint256)": "c87b56dd",
    "transferDomain(string,address)": "19fbe87e",
    "transferFrom(address,address,uint256)": "23b872dd"
  },
  "id": 43
}