{
  "abi": [
    {
      "type": "constructor",
      "inputs": [],
      "stateMutability": "nonpayable"
    },
    {
      "type": "receive",
      "stateMutability": "payable"
    },
    {
      "type": "function",
      "name": "addDomainToAddress",
      "inputs": [
        {
          "name": "owner",
          "type": "address",
          "internalType": "address"
        },
        {
          "name": "domain",
          "type": "string",
          "internalType": "string"
        }
      ],
      "outputs": [],
      "stateMutability": "nonpayable"
    },
    {
      "type": "function",
      "name": "addTLD",
      "inputs": [
        {
          "name": "tld",
          "type": "string",
          "internalType": "string"
        }
      ],
      "outputs": [],
      "stateMutability": "nonpayable"
    },
    {
      "type": "function",
      "name": "addressToDomains",
      "inputs": [
        {
          "name": "",
          "type": "address",
          "internalType": "address"
        },
        {
          "name": "",
          "type": "uint256",
          "internalType": "uint256"
        }
      ],
      "outputs": [
        {
          "name": "",
          "type": "string",
          "internalType": "string"
        }
      ],
      "stateMutability": "view"
    },
    {
      "type": "function",
      "name": "mainDomain",
      "inputs": [
        {
          "name": "",
          "type": "address",
          "internalType": "address"
        }
      ],
      "outputs": [
        {
          "name": "",
          "type": "string",
          "internalType": "string"
        }
      ],
      "stateMutability": "view"
    },
    {
      "type": "function",
      "name": "owner",
      "inputs": [],
      "outputs": [
        {
          "name": "",
          "type": "address",
          "internalType": "address"
        }
      ],
      "stateMutability": "view"
    },
    {
      "type": "function",
      "name": "registeredTLDs",
      "inputs": [
        {
          "name": "",
          "type": "uint256",
          "internalType": "uint256"
        }
      ],
      "outputs": [
        {
          "name": "",
          "type": "string",
          "internalType": "string"
        }
      ],
      "stateMutability": "view"
    },
    {
      "type": "function",
      "name": "removeDomainFromAddress",
      "inputs": [
        {
          "name": "owner",
          "type": "address",
          "internalType": "address"
        },
        {
          "name": "domain",
          "type": "string",
          "internalType": "string"
        }
      ],
      "outputs": [],
      "stateMutability": "nonpayable"
    },
    {
      "type": "function",
      "name": "renounceOwnership",
      "inputs": [],
      "outputs": [],
      "stateMutability": "nonpayable"
    },
    {
      "type": "function",
      "name": "resolve",
      "inputs": [
        {
          "name": "name",
          "type": "string",
          "internalType": "string"
        },
        {
          "name": "tld",
          "type": "string",
          "internalType": "string"
        }
      ],
      "outputs": [
        {
          "name": "owner",
          "type": "address",
          "internalType": "address"
        },
        {
          "name": "expiration",
          "type": "uint256",
          "internalType": "uint256"
        },
        {
          "name": "nftAddress",
          "type": "address",
          "internalType": "address"
        },
        {
          "name": "tokenId",
          "type": "uint256",
          "internalType": "uint256"
        }
      ],
      "stateMutability": "view"
    },
    {
      "type": "function",
      "name": "reverseLookup",
      "inputs": [
        {
          "name": "addr",
          "type": "address",
          "internalType": "address"
        }
      ],
      "outputs": [
        {
          "name": "",
          "type": "string",
          "internalType": "string"
        }
      ],
      "stateMutability": "view"
    },
    {
      "type": "function",
      "name": "setMainDomain",
      "inputs": [
        {
          "name": "domain",
          "type": "string",
          "internalType": "string"
        }
      ],
      "outputs": [],
      "stateMutability": "nonpayable"
    },
    {
      "type": "function",
      "name": "svgLibrary",
      "inputs": [],
      "outputs": [
        {
          "name": "",
          "type": "address",
          "internalType": "address"
        }
      ],
      "stateMutability": "view"
    },
    {
      "type": "function",
      "name": "tldContracts",
      "inputs": [
        {
          "name": "",
          "type": "string",
          "internalType": "string"
        }
      ],
      "outputs": [
        {
          "name": "",
          "type": "address",
          "internalType": "address"
        }
      ],
      "stateMutability": "view"
    },
    {
      "type": "function",
      "name": "transferOwnership",
      "inputs": [
        {
          "name": "newOwner",
          "type": "address",
          "internalType": "address"
        }
      ],
      "outputs": [],
      "stateMutability": "nonpayable"
    },
    {
      "type": "function",
      "name": "validNSAddress",
      "inputs": [
        {
          "name": "",
          "type": "address",
          "internalType": "address"
        }
      ],
      "outputs": [
        {
          "name": "",
          "type": "bool",
          "internalType": "bool"
        }
      ],
      "stateMutability": "view"
    },
    {
      "type": "function",
      "name": "withdrawFunds",
      "inputs": [],
      "outputs": [],
      "stateMutability": "nonpayable"
    },
    {
      "type": "event",
      "name": "FundsWithdrawn",
      "inputs": [
        {
          "name": "recipient",
          "type": "address",
          "indexed": true,
          "internalType": "address"
        },
        {
          "name": "amount",
          "type": "uint256",
          "indexed": false,
          "internalType": "uint256"
        }
      ],
      "anonymous": false
    },
    {
      "type": "event",
      "name": "OwnershipTransferred",
      "inputs": [
        {
          "name": "previousOwner",
          "type": "address",
          "indexed": true,
          "internalType": "address"
        },
        {
          "name": "newOwner",
          "type": "address",
          "indexed": true,
          "internalType": "address"
        }
      ],
      "anonymous": false
    },
    {
      "type": "event",
      "name": "TLDAdded",
      "inputs": [
        {
          "name": "tld",
          "type": "string",
          "indexed": true,
          "internalType": "string"
        },
        {
          "name": "tldContract",
          "type": "address",
          "indexed": true,
          "internalType": "address"
        }
      ],
      "anonymous": false
    },
    {
      "type": "error",
      "name": "DomainNotFound",
      "inputs": []
    },
    {
      "type": "error",
      "name": "InvalidTLD",
      "inputs": []
    },
    {
      "type": "error",
      "name": "NoFunds",
      "inputs": []
    },
    {
      "type": "error",
      "name": "OwnableInvalidOwner",
      "inputs": [
        {
          "name": "owner",
          "type": "address",
          "internalType": "address"
        }
      ]
    },
    {
      "type": "error",
      "name": "OwnableUnauthorizedAccount",
      "inputs": [
        {
          "name": "account",
          "type": "address",
          "internalType": "address"
        }
      ]
    },
    {
      "type": "error",
      "name": "ReentrancyGuardReentrantCall",
      "inputs": []
    },
    {
      "type": "error",
      "name": "TLDExists",
      "inputs": []
    },
    {
      "type": "error",
      "name": "TLDNotFound",
      "inputs": []
    },
    {
      "type": "error",
      "name": "TransferFailed",
      "inputs": []
    },
    {
      "type": "error",
      "name": "UnAuth",
      "inputs": []
    }
  ],
  "bytecode": {
    "object": "0x60a080604052346100e25733156100cd575f8054336001600160a01b03198216811783556040516001600160a01b03939290919084167f8be0079c531659141344cd1fd0a4f28419497f9722a3daafe3b4186f6b6457e08480a360018055611f8f818101906001600160401b038211838310176100b957908291615ea28339039082f09081156100ad575016608052604051615dbb90816100e7823960805181818161040201526106580152f35b604051903d90823e3d90fd5b634e487b7160e01b84526041600452602484fd5b631e4fbdf760e01b81525f6004820152602490fd5b5f80fdfe6040608081526004908136101562000021575b505036156200001f575f80fd5b005b5f91823560e01c806309f81a6f1462000e4157806315f8b35b1462000dcb5780631f12703f1462000ce457806324600fc31462000c1757806327f429eb146200096e5780633f78d02814620008ed57806351b3a70f14620008ad578063715018a6146200085e57806379dcf4d0146200080e5780638da5cb5b14620007e45780638f3f63e114620007a257806396da5873146200059457806398d7a7c61462000431578063a001e0d514620003eb578063cf7f8c92146200016c5763f2fde38b14620000ee575062000012565b346200016857602036600319011262000168576200010b62000e6f565b9062000116620010ed565b6001600160a01b039182169283156200015257505082546001600160a01b0319811683178455165f8051602062005d668339815191528380a380f35b51631e4fbdf760e01b8152908101849052602490fd5b8280fd5b50919034620003e757602080600319360112620001685783356001600160401b038111620003e357620001a390369086016200101e565b929091620001b062001264565b620001bd368585620010b2565b620001f88673__$1a4ff4596de7a9d1a777b77afda74b6361$__9285518093819263714b10ed60e01b8352878d840152602483019062000ead565b0381855af490811562000371578791620003c5575b50835191815190848301916200022581868562000e8a565b840160028152848660018060a01b0396879303019020541615620003b55790886200027c9262000257368b8b620010b2565b88516359c83d7360e11b8152808e018990529485929183918291602483019062000ead565b03915af4918215620003ab57918486620002e696959381958d80956200037b575b5050620002b79293948a5193849283925192839162000e8a565b810160028152030190205416828b885196879485938493632597011560e01b8552840152602483019062000ead565b03915afa918215620003715787926200032e575b50339116036200031e579462000317949533875252842062001199565b6001805580f35b81516351b8374160e11b81528690fd5b9091508281813d831162000369575b62000349818362000f39565b8101031262000365576200035d90620012f3565b905f620002fa565b8680fd5b503d6200033d565b84513d89823e3d90fd5b620002b794955090620003a2913d8091833e62000399818362000f39565b81019062001288565b93928d6200029d565b86513d8b823e3d90fd5b85516377ef60f360e11b81528a90fd5b620003dc91503d8089833e62000399818362000f39565b5f6200020d565b8380fd5b5080fd5b505034620003e75781600319360112620003e757517f00000000000000000000000000000000000000000000000000000000000000006001600160a01b03168152602090f35b503462000168578160031936011262000168576001600160401b0391813583811162000590576200046690369084016200101e565b90936024359081116200058c576200048290369085016200101e565b835194918190863784016002815284602060018060a01b039687930301902054169081156200057e5790602060809392620004d786519889958694859463364460f360e01b8652850152602484019162001119565b03915afa9182156200057457849385869187956200050d575b506080965082845196168652602086015216908301526060820152f35b9450505092506080823d82116200056b575b816200052e6080938362000f39565b81010312620003e357608093506200054682620012f3565b9260208301519360606200055c848601620012f3565b94015190949390935f620004f0565b3d91506200051f565b81513d86823e3d90fd5b83516377ef60f360e11b8152fd5b8580fd5b8480fd5b509034620001685760209081600319360112620003e3576001600160401b039083358281116200058c57620005cd90369086016200101e565b939092620005da620010ed565b620005e462001264565b8415801562000797575b62000787578251908585833760028287019081528290038301909120546001600160a01b03919082166200077757835190614865808301918211838310176200076457908291620015018339606081526200064e60608201898962001119565b90308682015286857f000000000000000000000000000000000000000000000000000000000000000016910152039088f080156200075a57169482518585823760028682019081528190038301902080546001600160a01b0319168717905560035490600160401b82101562000747576001820180600355821015620007345750849291620006e9848660069460038c52848c200162001199565b86885252808620805460ff1916600117905551928392833781018481520390207fd19eec2d3affcfee6188c3da52b2711120e11f62353ff8fbff375f0dbba2c5938380a36001805580f35b634e487b7160e01b885260329052602487fd5b634e487b7160e01b885260419052602487fd5b83513d89823e3d90fd5b634e487b7160e01b8a526041895260248afd5b83516316190acd60e01b81528790fd5b8251635a2b715160e01b81528690fd5b50600a8511620005ee565b505034620003e7576020366003190112620003e75760209160ff9082906001600160a01b03620007d162000e6f565b1681526006855220541690519015158152f35b505034620003e75781600319360112620003e757905490516001600160a01b039091168152602090f35b5034620001685760203660031901126200016857356003548110156200016857620008469060208460036200085a9652200162000f71565b905191829160208352602083019062000ead565b0390f35b8334620008aa5780600319360112620008aa576200087b620010ed565b80546001600160a01b03198116825581906001600160a01b03165f8051602062005d668339815191528280a380f35b80fd5b50346200016857602036600319011262000168576200085a9262000846918391906001600160a01b03620008e062000e6f565b1682526020522062000f71565b509134620008aa576020366003190112620008aa578235906001600160401b038211620008aa5736602383011215620008aa57506020928160246200093893369301359101620010b2565b826200094d8351928381519384920162000e8a565b6002908201908152819003830190205490516001600160a01b039091168152f35b50919034620003e75762000982366200104e565b9291906200098f62001264565b3385526020916006835260ff84872054161562000c07576001600160a01b031680865260058352838620909490915f1991620009ce91369190620010b2565b83815191012090868354905b81811062000bb5575b5080821062000ac7575b505084865286835262000a0284872062000f71565b8381519101201462000a17575b846001805580f35b8385528582528483812062000a2d815462000efe565b8062000a86575b505050805415801562000a49575b5062000a0f565b62000a73579084959162000a67955280862093865252832062001419565b805f8080808062000a42565b634e487b7160e01b855260328652602485fd5b82601f821160011462000aa0575050555b845f8062000a34565b909180825262000abf601f878420940160051c84016001850162001139565b555562000a97565b5f19810190811162000ba25762000ae362000aec918562000ed4565b50918462000ed4565b62000b7d579062000afd9162001419565b8154801562000b8f575f190162000b15818462000ed4565b62000b7d578062000b2889925462000efe565b8062000b3c575b50505082555f80620009ed565b82601f821160011462000b56575050555b865f8062000b2f565b909180825262000b75601f898420940160051c84016001850162001139565b555562000b4d565b634e487b7160e01b8852878952602488fd5b634e487b7160e01b875260318852602487fd5b634e487b7160e01b885260118952602488fd5b8362000bcd62000bc6838862000ed4565b5062000f71565b8781519101201462000bfe575f19811462000beb57600101620009da565b634e487b7160e01b895260118a52602489fd5b91505f620009e3565b835163c3e13c4760e01b81528790fd5b5034620001685782600319360112620001685762000c34620010ed565b62000c3e62001264565b4790811562000cd65760018060a01b03908480808086868254165af13d1562000cd0573d62000c6d8162001096565b9062000c7c8751928362000f39565b81528660203d92013e5b1562000cc257507feaff4b37086828766ad3268786972c0cd24259d4c87a80f9d3963a3c3d999b0d916020918554169351908152a26001805580f35b83516312171d8360e31b8152fd5b62000c86565b825163043f9e1160e41b8152fd5b509034620001685762000cf7366200104e565b92909162000d0462001264565b338652600660205260ff82872054161562000dbb576001600160a01b03168086526005602052818620805490600160401b82101562000da8579062000d4f9160018201815562000ed4565b62000d9657848462000d619262001199565b855260056020526001818620541462000d7c57846001805580f35b62000d8c93602052842062001199565b5f80808062000a0f565b634e487b7160e01b8752868652602487fd5b634e487b7160e01b885260418752602488fd5b815163c3e13c4760e01b81528590fd5b509134620008aa5781600319360112620008aa5762000de962000e6f565b6001600160a01b0316815260056020528181208054602435919082101562000168579062000e179162000ed4565b93909362000e2f576200085a83620008468662000f71565b634e487b7160e01b8252819052602490fd5b505034620003e7576020366003190112620003e7576200085a906200084662000e6962000e6f565b62001308565b600435906001600160a01b038216820362000e8657565b5f80fd5b5f5b83811062000e9c5750505f910152565b818101518382015260200162000e8c565b9060209162000ec88151809281855285808601910162000e8a565b601f01601f1916010190565b805482101562000eea575f5260205f2001905f90565b634e487b7160e01b5f52603260045260245ffd5b90600182811c9216801562000f2e575b602083101462000f1a57565b634e487b7160e01b5f52602260045260245ffd5b91607f169162000f0e565b601f909101601f19168101906001600160401b0382119082101762000f5d57604052565b634e487b7160e01b5f52604160045260245ffd5b9060405191825f82549262000f868462000efe565b9081845260019485811690815f1462000ff9575060011462000fb5575b505062000fb39250038362000f39565b565b909391505f52602090815f20935f915b81831062000fe057505062000fb393508201015f8062000fa3565b8554888401850152948501948794509183019162000fc5565b91505062000fb394506020925060ff191682840152151560051b8201015f8062000fa3565b9181601f8401121562000e86578235916001600160401b03831162000e86576020838186019501011162000e8657565b90604060031983011262000e86576004356001600160a01b038116810362000e865791602435906001600160401b03821162000e865762001092916004016200101e565b9091565b6001600160401b03811162000f5d57601f01601f191660200190565b929192620010c08262001096565b91620010d0604051938462000f39565b82948184528183011162000e86578281602093845f960137010152565b5f546001600160a01b031633036200110157565b60405163118cdaa760e01b8152336004820152602490fd5b908060209392818452848401375f828201840152601f01601f1916010190565b81811062001145575050565b5f815560010162001139565b9190601f81116200116157505050565b62000fb3925f5260205f20906020601f840160051c830193106200118e575b601f0160051c019062001139565b909150819062001180565b9092916001600160401b03811162000f5d57620011c381620011bc845462000efe565b8462001151565b5f601f8211600114620011fd57819293945f92620011f1575b50508160011b915f199060031b1c1916179055565b013590505f80620011dc565b601f198216948382526020918281209281905b8882106200124b5750508360019596971062001231575b505050811b019055565b01355f19600384901b60f8161c191690555f808062001227565b8060018496829495870135815501950192019062001210565b60026001541462001276576002600155565b604051633ee5aeb560e01b8152600490fd5b60208183031262000e86578051906001600160401b03821162000e86570181601f8201121562000e86578051620012bf8162001096565b92620012cf604051948562000f39565b8184526020828401011162000e8657620012f0916020808501910162000e8a565b90565b51906001600160a01b038216820362000e8657565b60018060a01b03165f81815260209160048352620013296040832062000f71565b80516200141257508152600582526040812080546001600160401b039190828111620013fe576040519062001364868260051b018362000f39565b808252858201809386528686208787925b848410620013dd57505050505051158015620013bb57505060405192830190811183821017620013a757604052815290565b634e487b7160e01b82526041600452602482fd5b91509250620013c957505190565b634e487b7160e01b81526032600452602490fd5b6001918291620013ed8562000f71565b815201920192019190889062001375565b634e487b7160e01b84526041600452602484fd5b9250505090565b90808214620014fc576200142e815462000efe565b906001600160401b03821162000f5d578190620014588262001451865462000efe565b8662001151565b5f90601f83116001146200148e575f92620014825750508160011b915f199060031b1c1916179055565b015490505f80620011dc565b81526020808220858352818320935090601f1985169083905b828210620014e2575050908460019594939210620014c957505050811b019055565b01545f1960f88460031b161c191690555f808062001227565b8495819295850154815560018091019601940190620014a7565b505056fe60c060409080825234620006e557620048658038038091620000228285620006e9565b8339810190606081830312620006e55780516001600160401b039390848111620006e557820191601f90848285011215620006e5578351958087116200046e57835194602090601f19986200007e838b888401160189620006e9565b80885282880198838284010111620006e55788836200009e93016200070d565b620000b885620000b083860162000730565b940162000730565b938551917f486f74446f6773204e616d696e67205365727669636500000000000000000000818401526201016960ed1b6036840152620001186039848b620001078c518092858501906200070d565b8101036019810186520184620006e9565b5f5b8851811015620001ba5762000130818a62000754565b51906001600160f81b0319606160f81b818416908110159081620001aa575b5062000169575b5062000163915062000745565b6200011a565b8c60f893841c0160ff8111620001965762000163931b165f1a6200018e828c62000754565b535f62000156565b634e487b7160e01b5f52601160045260245ffd5b603d60f91b101590505f6200014f565b5096899495969789620001eb828b518093620001dd87518092858501906200070d565b8101038084520182620006e9565b84518681116200046e575f546001968782811c92168015620006da575b858310146200044f57818784931162000687575b50849087831160011462000627575f926200061b575b50505f19600383901b1c191690861b175f555b8051908682116200046e578554908682811c9216801562000610575b848310146200044f578186849311620005bd575b5083908683116001146200055d575f9262000551575b50505f19600383901b1c191690851b1784555b8360075583600955835f905b620004b5575b50815115620004a4576001600160a01b03878116156200049357881615620004825781519485116200046e576008548481811c9116801562000463575b828210146200044f5783811162000406575b50809285116001146200039f5750839450908392915f9462000393575b50501b915f199060031b1c1916176008555b60805260a052516140ea90816200077b82396080518181816106bc0152818161133f015281816117fb01528181613291015281816135f00152818161391001528181613c210152613f8d015260a05181818161062d01528181610edb015261123b0152f35b0151925087806200031c565b92948490811660085f52845f20945f905b88838310620003eb5750505010620003d2575b505050811b016008556200032e565b01515f1960f88460031b161c19169055858080620003c3565b858701518855909601959485019487935090810190620003b0565b60085f52815f208480880160051c82019284891062000445575b0160051c019085905b82811062000439575050620002ff565b5f815501859062000429565b9250819262000420565b634e487b7160e01b5f52602260045260245ffd5b90607f1690620002ed565b634e487b7160e01b5f52604160045260245ffd5b885163e4c95c4b60e01b8152600490fd5b895163739c628b60e11b8152600490fd5b8851634e4e46eb60e01b8152600490fd5b82518110156200054b5784620004cc828562000754565b516001600160f81b03199290604160f81b8482169081101590816200053b575b5062000508575b506200050191925062000745565b90620002aa565b91508360f892831c019260ff84116200019657879362000501931b165f1a62000532828762000754565b538291620004f3565b602d60f91b101590508e620004ec565b620002b0565b015190508b806200028b565b908988941691845f52855f20925f5b87828210620005a657505084116200058d575b505050811b0184556200029e565b01515f1960f88460031b161c191690558b80806200057f565b8385015186558b979095019493840193016200056c565b909150865f52835f208680850160051c82019286861062000606575b918991869594930160051c01915b828110620005f757505062000275565b5f8155859450899101620005e7565b92508192620005d9565b91607f169162000261565b015190508c8062000232565b908a899416915f8052865f20925f5b8882821062000670575050841162000657575b505050811b015f5562000245565b01515f1960f88460031b161c191690558c808062000649565b8385015186558c9790950194938401930162000636565b9091505f8052845f208780850160051c820192878610620006d0575b918a91869594930160051c01915b828110620006c15750506200021c565b5f81558594508a9101620006b1565b92508192620006a3565b91607f169162000208565b5f80fd5b601f909101601f19168101906001600160401b038211908210176200046e57604052565b5f5b8381106200071f5750505f910152565b81810151838201526020016200070f565b51906001600160a01b0382168203620006e557565b5f198114620001965760010190565b90815181101562000766570160200190565b634e487b7160e01b5f52603260045260245ffdfe608060409080825260049182361015610016575f80fd5b5f91823560e01c90816296c06714611e2d5750806301ffc9a714611d8857806306fdde0314611d02578063081812fc14611cc6578063095ea7b314611be95780631762655914611bc157806319fbe87e14611a3f5780631f21b04f146119e857806323b872dd14611975578063259701151461193857806326449235146118d657806326b8b9ee146118b857806326d389271461187d5780632811aa5a1461185c57806329aa4f51146118415780632a55205a146117a85780632d5514321461170357806332752b09146116bd578063364460f31461165957806342842e0e1461161d578063463b08db146116025780634889e1921461156757806350b0467f146115465780635a018e6a146114545780636352211e1461142357806370a08231146113cb5780637c19c06514610d5b57806385e486c8146113b057806391f010821461138f57806392954aa61461136e57806394cb88ac1461132b57806395d89b411461126a578063a001e0d514611227578063a22cb46514611185578063acf1a84114610d7b578063b0dbf47d14610d60578063b5301ced14610d5b578063b739f1cc14610d3a578063b88d4fde14610c73578063bed3d51014610af4578063c87b56dd14610a8c578063cbeb5f3d14610a5e578063e985e9c514610a11578063ea87152b146103da5763fa4de6c914610210575f80fd5b346103d657602090816003193601126103d257833561022d612887565b801580156103c8575b6103b857835b600e80549081158015806103af575b15610394576103845761025c6128c6565b506102656128c6565b509061028661027f600180940154928951918280926120d5565b0390611f99565b4211156103605761029e6102986128c6565b50612ea4565b51925f19810190811161034d576102b76102c6916128aa565b506102c06128c6565b90612b43565b6102d76102d16128c6565b50612b69565b556102e0612a2a565b826102ea8361204b565b5554610340575b835181516103028183898601611eaf565b600a90820190815281900386019020546001600160a01b0316610326575b5061023c565b9461033461033992966130d2565b61229b565b935f610320565b610348612de1565b6102f1565b634e487b7160e01b855260118a52602485fd5b505050945050915f80516020614075833981519152925b51908152a1600160075580f35b8451630835e4a560e01b81528890fd5b505050945050915f8051602061407583398151915292610377565b5084881061024b565b81516321af709760e21b81528590fd5b5060148111610236565b8280fd5b5080fd5b5091906103e6366121d1565b949091936103f2612887565b610405610400368588611fd7565b613ddf565b156109ed5781519280868537600a8185019081528490036020908101909420546001600160a01b0390811661097d575b8715808015610973575b610963576104578961045236868c611fd7565b613d5b565b80341061094757506301e13380808a02998a04141715610934578495969742906104809161227a565b92845161048c81611f21565b33815288878201918183528781018781528c878a60608501954287526009549e8f6104b68161229b565b6009558b845186888237600a87820190815281900384019020985189546001600160a01b031916911617885589516001600160601b0398906104fa908a16826122a9565b87516001820155895190600201558252600b9052209161051992612327565b8a8d888b519182378b818a8101600c81520301902055600d54600160401b9081811015610921578060016105509201600d55612071565b61090f578e6105638a8261058294612327565b600d548c518e8c848337818d8101601081520301902055893691611fd7565b908a519061058f82611f50565b8282528a8d830152600e54908110156108fc57906105b68260016105bc9401600e556128aa565b906128f8565b600e545f198101918183116108e957906105d96105df939261204b565b55612d82565b88516105ea81611f7e565b8c815233156108d257866105fe8d33613735565b166108bb57333b6107b2575b506106558c93928e925193519551168a51958694859463f464601d60e01b86528b7f0000000000000000000000000000000000000000000000000000000000000000918b8801612444565b038173__$14745b3d9956b91f33c1ff89a32fb3f261$__5af49081156107a85790610688918a91610786575b5088612631565b845191838a888501376106ba836106ac6021878301601760f91b8c82015201612521565b03601f198101855284611f99565b7f00000000000000000000000000000000000000000000000000000000000000001690813b156107825791889161070793838851809681958294631f12703f60e01b84523390840161260f565b03925af1801561077857610756575b505f805160206140358339815191529394959661073234613f54565b818451928392833781015f81520390209382519586528501523393a3600160075580f35b956107705f80516020614035833981519152959697611f6b565b959493610716565b84513d89823e3d90fd5b8880fd5b6107a291503d808c833e61079a8183611f99565b8101906123e6565b5f610681565b86513d8b823e3d90fd5b946107fa8b9e9b80839f9c9e9b9a99988f8d8f9151809681948293630a85bd0160e11b9a8b855233908501528560248501526044840152608060648401526084830190611ed0565b0391335af19182918d93610876575b505061083f578e8e8e61081a61273d565b8051939084610839578251633250574960e11b81523381860152602490fd5b84925001fd5b63ffffffff9b9e9b60e09e9798999a9d9b9e1b16036108605761065561060a565b8851633250574960e11b81523381870152602490fd5b9080929350813d83116108b4575b61088e8183611f99565b810103126108b057516001600160e01b0319811681036108b057908f80610809565b8b80fd5b503d610884565b89516339e3563760e11b81528087018e9052602490fd5b8951633250574960e11b81528087018e9052602490fd5b634e487b7160e01b8f526011885260248ffd5b634e487b7160e01b8f526041885260248ffd5b634e487b7160e01b8e528d875260248efd5b634e487b7160e01b8e526041875260248efd5b634e487b7160e01b865260118352602486fd5b84604491875191635a3f8cb160e01b8352820152346024820152fd5b8451636ee756d360e11b81528490fd5b50600a891161043f565b60018451838982378681858101600a81520301902001544211156109c6576109ae6109a936848a611fd7565b612b86565b6109c16109bc36848a611fd7565b6130d2565b610435565b5085906109e99293519485946350cb29b360e01b8652850152602484019161225a565b0390fd5b9051637f19f48d60e01b8152602091810191909152806109e960248201848761225a565b50346103d657806003193601126103d65760ff81602093610a30611ef5565b610a38611f0b565b6001600160a01b0391821683526005875283832091168252855220549151911615158152f35b50346103d657816003193601126103d65760209051734e08ff4ce98523f7b1299aae51f515ba64baf6798152f35b5082346103d25760203660031901126103d25790610af092610acb9235610ab281612220565b5081526006602052610ad28282208351948580926120d5565b0384611f99565b8151610add81611f7e565b5251918291602083526020830190611ed0565b0390f35b50346103d657816003193601126103d657610b0d612887565b610b15612887565b815b600e8054908115801580610c69575b15610c4d57610c3d57610b376128c6565b50610b406128c6565b5090610b5a61027f600180940154928851918280926120d5565b421115610c1957610b6c6102986128c6565b51925f198101908111610c06576102b7610b85916128aa565b610b906102d16128c6565b55610b99612a2a565b82610ba38361204b565b5554610bf9575b8251815190602091610bbf8183858701611eaf565b600a9082019081528190039091019020546001600160a01b0316610be4575b50610b17565b92610334610bf292946130d2565b915f610bde565b610c01612de1565b610baa565b634e487b7160e01b855260118852602485fd5b50505092505f805160206140758339815191529160209151908152a1600160075580f35b8351630835e4a560e01b81528690fd5b50505092505f8051602061407583398151915291602091610377565b5060148610610b26565b50346103d65760803660031901126103d657610c8d611ef5565b92610c96611f0b565b604435916064356001600160401b038111610d365736602382011215610d3657610cc99036906024818501359101611fd7565b936001600160a01b039083821615610d2057610ce6338686613a67565b9180891690831603610d0357505050610d0093943361276c565b80f35b516364283d7b60e01b81529182916109e99186908a908501612f3d565b51633250574960e11b8152808301879052602490fd5b8580fd5b50346103d657816003193601126103d65760209051662aa1efb94e00008152f35b6121b6565b50346103d657816003193601126103d6576020905160198152f35b5082610d86366121d1565b939192610d91612887565b610d9f610400368487611fd7565b1561116257825182858237600a8382019081528190036020019020805491906001600160a01b0383168015611141573314801590611134575b6111265786159283801561111c575b61110c57610dfa8861045236888b611fd7565b8034106110f05750600197888301948554906301e133808084029384041417156110dd5790610e289161227a565b845560a01c6001600160601b0381146110ca5787610e479101826122a9565b8254610e5c610e5736878a611fd7565b61204b565b549081156110ba575f1982019182116110a75788610e79836128aa565b50015490808a610e88856128aa565b50015581811015610fa7575050610e9e90612d82565b878487610f02885183838237602081858101600c81520301902054948754906002810154905460a01c918b51988996879663f464601d60e01b88527f0000000000000000000000000000000000000000000000000000000000000000928801612444565b038173__$14745b3d9956b91f33c1ff89a32fb3f261$__5af4918215610f9d5790610f3592918992610f81575b50612631565b610f3e34613f54565b54928183519283928337810186815203902090519182527f93b77696dfb877618deeade6a76fd259d63c2600487f64a1bf126886c0db218e60203393a360075580f35b610f969192503d808b833e61079a8183611f99565b9089610f2f565b85513d8a823e3d90fd5b11610fb3575b50610e9e565b600e5481895b610fc5575b5050610fad565b808a1b6001600160ff1b0382168203611094578a81018082116110815760028201809211611081579081848d9594931080611060575b611058575b5082811080611037575b61102f575b50808414611029578361102191612ed1565b829091610fb9565b50610fbe565b93508c61100f565b5083611042826128aa565b5001548461104f876128aa565b5001541161100a565b94508d611000565b508461106b826128aa565b50015485611078886128aa565b50015411610ffb565b634e487b7160e01b8d526011875260248dfd5b634e487b7160e01b8c526011865260248cfd5b634e487b7160e01b8a526011845260248afd5b865163075cb34d60e31b81528490fd5b634e487b7160e01b895260118352602489fd5b634e487b7160e01b8b526011855260248bfd5b83604491885191635a3f8cb160e01b8352820152346024820152fd5b8551636ee756d360e11b81528390fd5b50600a8811610de7565b5083516282b42960e81b8152fd5b5060018101544211610dd8565b855163a79983f560e01b8152602081850152806109e960248201888b61225a565b6109e9846020938551948594637f19f48d60e01b8652850152602484019161225a565b508290346103d257806003193601126103d2576111a0611ef5565b9060243591821515809303611223576001600160a01b031692831561120e5750338452600560205280842083855260205280842060ff1981541660ff8416179055519081527f17307eab39ab6107e8899845ad3d59bd9653f200f220920489ca2b5937696c3160203392a380f35b836024925191630b61174360e31b8352820152fd5b8480fd5b50346103d657816003193601126103d657517f00000000000000000000000000000000000000000000000000000000000000006001600160a01b03168152602090f35b50346103d657816003193601126103d65780519082600180549061128d8261209d565b8086529181811690811561130357506001146112c8575b5050506112b682610af0940383611f99565b51918291602083526020830190611ed0565b80955082526020948583205b8284106112f05750505082610af0946112b692820101946112a4565b80548685018801529286019281016112d4565b610af097506112b69450602092508693915060ff191682840152151560051b820101946112a4565b50346103d657816003193601126103d657517f00000000000000000000000000000000000000000000000000000000000000006001600160a01b03168152602090f35b50346103d657816003193601126103d65760209051660e35fa931a00008152f35b50346103d657816003193601126103d65760209051661550f7dca700008152f35b50346103d657816003193601126103d65760209051600a8152f35b509034611420576020366003190112611420576001600160a01b036113ee611ef5565b1692831561140b5750806020938392526003845220549051908152f35b91516322718ad960e21b815291820152602490fd5b80fd5b509034611420576020366003190112611420575061144360209235612220565b90516001600160a01b039091168152f35b5091346103d657816003193601126103d657600d54906001600160401b038211611533575082519160209261148e848460051b0182611f99565b8281528381019283600d845285842084915b83831061150157505050508451938085019181865251809252858501958260051b8601019392955b8287106114d55785850386f35b9091929382806114f1600193603f198a82030186528851611ed0565b96019201960195929190926114c8565b60018881928b9a97989a516115218161151a81896120d5565b0382611f99565b815201920192019190969493966114a0565b634e487b7160e01b835260419052602482fd5b50346103d657816003193601126103d65760209051662386f26fc100008152f35b509034611420576020366003190112611420578235906001600160401b038211611420575061159d608093602092369101611e7e565b919082845193849283378101600a8152030190209060608151916115c083611f21565b83549360018060a01b0385169485855260a01c938460208201526002600183015492838584015201549384910152815194855260208501528301526060820152f35b50346103d657816003193601126103d6576020905160fa8152f35b50346103d65761162c36612166565b919483519361163a85611f7e565b8585526001600160a01b039083821615610d2057610ce6338686613a67565b509034611420576020366003190112611420578235906001600160401b038211611420575061169060809361169692369101611e7e565b9061303c565b84516001600160a01b03948516815260208101939093529216928101929092526060820152f35b509034611420576020366003190112611420578235906001600160401b03821161142057506116f46020936116fa92369101611e7e565b90612f60565b90519015158152f35b50346103d657816003193601126103d657805190826008546117248161209d565b80855290600190818116908115611303575060011461174f575050506112b682610af0940383611f99565b60088352602095507ff3f7a9fe364faab93b216da50a3214154f22a0a2b415b23a84c8169e8b636ee35b8284106117955750505082610af0946112b692820101946112a4565b8054868501880152928601928101611779565b509190346114205782600319360112611420578135815260026020528281205460243592906001600160a01b0316156118335760fa83029280840460fa149015171561182057835180610af061271086047f00000000000000000000000000000000000000000000000000000000000000008361219b565b634e487b7160e01b825260119052602490fd5b83516379d93f4960e01b8152fd5b50346103d657816003193601126103d6576020905160038152f35b50346103d657816003193601126103d65760209051661c6bf5263400008152f35b5082346103d25760203660031901126103d257906112b681610af0946118b194358152600b602052208251938480926120d5565b0383611f99565b50346103d657816003193601126103d657602090600d549051908152f35b50346103d6576080906118ff60206118ed3661200d565b81845193828580945193849201611eaf565b8101600a81520301902090815491600260018201549101549180519360018060a01b038116855260a01c60208501528301526060820152f35b509034611420576020366003190112611420578235906001600160401b038211611420575061196f60209361144392369101611e7e565b90612fd8565b5082346103d25761198536612166565b91936001600160a01b039291838116156119d1576119a590833391613a67565b92808616908416036119b5578580f35b516364283d7b60e01b81529384936109e9939291908501612f3d565b8151633250574960e11b8152808601889052602490fd5b50919034611420576020366003190112611420578135600d548110156103d657611a1190612071565b929092611a2d578351610af090856112b6826118b181896120d5565b634e487b7160e01b8252819052602490fd5b508290346103d257806003193601126103d25781356001600160401b038111611bbd57611a6f9036908401611e7e565b611a7a929192611f0b565b92611a83612887565b825182828237600a838201908152819003602001902080546001600160a01b039391908416908115908115611baf575b50611b8e573303611b7f57828516928315611b6f57611ae7855183858237602081858101600c815203019020548097613735565b90811680611b06578551637e27328960e01b8152808901889052602490fd5b8789969288923303611b53575050508190519283378101908382528033920390207fb93e5ab0838892891d936aa278bd882aaa1c862433c9ff605a2fb0cd0b9d4e118480a4600160075580f35b6109e99084519384936364283d7b60e01b855233908501612f3d565b845163ae9954c360e01b81528790fd5b83516282b42960e81b81528690fd5b845163a79983f560e01b8152602081890152806109e960248201858761225a565b600191500154421189611ab3565b8380fd5b50346103d657602090611bd7826118ed3661200d565b8101600c815203019020549051908152f35b508290346103d257806003193601126103d257611c04611ef5565b91602435611c1181612220565b33151580611cb3575b80611c8a575b611c74576001600160a01b039485169482918691167f8c5be1e5ebec7d5bd14f71427d1e84f3dd0314c0f7b2291e5b200ac8c7c3b9258880a48452602052822080546001600160a01b031916909117905580f35b835163a9fbf51f60e01b81523381850152602490fd5b506001600160a01b03811686526005602090815284872033885290528386205460ff1615611c20565b506001600160a01b038116331415611c1a565b5082346103d25760203660031901126103d257918260209335611ce881612220565b50825283528190205490516001600160a01b039091168152f35b50346103d657816003193601126103d657805190828054611d228161209d565b808552906001908181169081156113035750600114611d4d575050506112b682610af0940383611f99565b94508180526020948583205b828410611d755750505082610af0946112b692820101946112a4565b8054868501880152928601928101611d59565b5082346103d25760203660031901126103d257359063ffffffff60e01b82168092036103d2576020925063152a902d60e11b8214918215611dcd575b50519015158152f35b909150632483248360e11b8114908115611dea575b509083611dc4565b6380ac58cd60e01b811491508115611e1c575b8115611e0b575b5083611de2565b6301ffc9a760e01b14905083611e04565b635b5e139f60e01b81149150611dfd565b82858534611420576020366003190112611420578135906001600160401b038211611420575092602081611e676001948397369101611e7e565b809183378101600a81520301902001549051908152f35b9181601f84011215611eab578235916001600160401b038311611eab5760208381860195010111611eab57565b5f80fd5b5f5b838110611ec05750505f910152565b8181015183820152602001611eb1565b90602091611ee981518092818552858086019101611eaf565b601f01601f1916010190565b600435906001600160a01b0382168203611eab57565b602435906001600160a01b0382168203611eab57565b608081019081106001600160401b03821117611f3c57604052565b634e487b7160e01b5f52604160045260245ffd5b604081019081106001600160401b03821117611f3c57604052565b6001600160401b038111611f3c57604052565b602081019081106001600160401b03821117611f3c57604052565b601f909101601f19168101906001600160401b03821190821017611f3c57604052565b6001600160401b038111611f3c57601f01601f191660200190565b929192611fe382611fbc565b91611ff16040519384611f99565b829481845281830111611eab578281602093845f960137010152565b6020600319820112611eab57600435906001600160401b038211611eab5780602383011215611eab5781602461204893600401359101611fd7565b90565b6020612064918160405193828580945193849201611eaf565b8101600f81520301902090565b600d5481101561208957600d5f5260205f2001905f90565b634e487b7160e01b5f52603260045260245ffd5b90600182811c921680156120cb575b60208310146120b757565b634e487b7160e01b5f52602260045260245ffd5b91607f16916120ac565b905f92918054916120e58361209d565b9182825260019384811690815f146121435750600114612106575b50505050565b90919394505f52602092835f2092845f945b83861061212f57505050500101905f808080612100565b805485870183015294019385908201612118565b9294505050602093945060ff191683830152151560051b0101905f808080612100565b6060906003190112611eab576001600160a01b03906004358281168103611eab57916024359081168103611eab579060443590565b6001600160a01b039091168152602081019190915260400190565b34611eab575f366003190112611eab57602060405160148152f35b6040600319820112611eab57600435906001600160401b038211611eab576121fb91600401611e7e565b909160243590565b5f90815260046020526040902080546001600160a01b0319169055565b5f818152600260205260409020546001600160a01b0316908115612242575090565b60249060405190637e27328960e01b82526004820152fd5b908060209392818452848401375f828201840152601f01601f1916010190565b9190820180921161228757565b634e487b7160e01b5f52601160045260245ffd5b5f1981146122875760010190565b80546001600160a01b031660a09290921b6001600160a01b031916919091179055565b8181106122d7575050565b5f81556001016122cc565b9190601f81116122f157505050565b61231b925f5260205f20906020601f840160051c8301931061231d575b601f0160051c01906122cc565b565b909150819061230e565b9092916001600160401b038111611f3c5761234c81612346845461209d565b846122e2565b5f601f821160011461238357819293945f92612378575b50508160011b915f199060031b1c1916179055565b013590505f80612363565b601f198216948382526020918281209281905b8882106123ce575050836001959697106123b5575b505050811b019055565b01355f19600384901b60f8161c191690555f80806123ab565b80600184968294958701358155019501920190612396565b602081830312611eab578051906001600160401b038211611eab570181601f82011215611eab57805161241881611fbc565b926124266040519485611f99565b81845260208284010111611eab576120489160208085019101611eaf565b939694919061245e9196939660c0865260c086019161225a565b956020848803818601525f906008546124768161209d565b808b529060019081811690811561250057506001146124c2575b5050506001600160a01b039096166040850152606084015260808301526001600160601b031660a09190910152909150565b91925060085f52825f20915f925b8284106124ed5750505060a0959697980101879695945f80612490565b8054848d018601529284019281016124d0565b60ff1916848d01525098998a995090151560051b0101905060a05f80612490565b6008545f92916125308261209d565b9160019081811690811561257e575060011461254b57505050565b909192935060085f52602090815f20905f915b85831061256d57505050500190565b80548584015291830191810161255e565b60ff191683525050811515909102019150565b5f9291815461259f8161209d565b926001918083169081156125f457506001146125bb5750505050565b9091929394505f52602090815f20905f915b8583106125e3575050505001905f808080612100565b8054858401529183019181016125cd565b60ff191684525050508115159091020191505f808080612100565b6001600160a01b03909116815260406020820181905261204892910190611ed0565b5f818152600660209081526040822084519495949193929091906001600160401b0382116127295761266d82612667855461209d565b856122e2565b8490601f83116001146126b957905f805160206140958339815191529697836126ae575b50508160011b915f199060031b1c19161790555b604051908152a1565b015190505f80612691565b9196601f198816848452868420935b81811061271257509160019391895f80516020614095833981519152999a94106126fa575b505050811b0190556126a5565b01515f1960f88460031b161c191690555f80806126ed565b9293876001819287860151815501950193016126c8565b634e487b7160e01b81526041600452602490fd5b3d15612767573d9061274e82611fbc565b9161275c6040519384611f99565b82523d5f602084013e565b606090565b9293823b61277c575b5050505050565b6127c09060018060a01b038094169560405194859481630a85bd0160e11b988988521660048701521660248501526044840152608060648401526084830190611ed0565b03906020815f938185885af19082908261283f575b505061280d57826127e461273d565b805191908261280657604051633250574960e11b815260048101839052602490fd5b6020915001fd5b6001600160e01b0319160361282757505f80808080612775565b60249060405190633250574960e11b82526004820152fd5b909192506020813d821161287f575b8161285b60209383611f99565b810103126103d65751906001600160e01b0319821682036114205750905f806127d5565b3d915061284e565b600260075414612898576002600755565b604051633ee5aeb560e01b8152600490fd5b600e5481101561208957600e5f5260205f209060011b01905f90565b600e541561208957600e5f9081527fbb7b4a454dc3493923482f07822329ed19e8244eff582cc204f8554c3620c3fd91565b909291926129cf57825180519093906001600160401b038111611f3c5761292381612667855461209d565b6020601f82116001146129675790806020939260019596975f9261295c575b50505f19600383901b1c191690841b1784555b0151910155565b015190505f80612942565b601f19821690845f52805f20915f5b8181106129b7575091839160019697986020969588951061299f575b505050811b018455612955565b01515f1960f88460031b161c191690555f8080612992565b9192602060018192868c015181550194019201612976565b634e487b7160e01b5f525f60045260245ffd5b6129ec815461209d565b90816129f6575050565b81601f5f9311600114612a07575055565b908083918252612a26601f60208420940160051c8401600185016122cc565b5555565b600e548015612a57575f1901612a3f816128aa565b6129cf57600181612a505f936129e2565b0155600e55565b634e487b7160e01b5f52603160045260245ffd5b90808214612b3f57612a7d815461209d565b906001600160401b038211611f3c578190612aa282612a9c865461209d565b866122e2565b5f90601f8311600114612ad5575f92612aca5750508160011b915f199060031b1c1916179055565b015490505f80612363565b81526020808220858352818320935090601f1985169083905b828210612b26575050908460019594939210612b0e57505050811b019055565b01545f1960f88460031b161c191690555f80806123ab565b8495819295850154815560018091019601940190612aee565b5050565b91906129cf57808203612b54575050565b600181612b62829385612a6b565b0154910155565b6020612b7b9160405192838092612591565b600f81520301902090565b6040519080519160208181840194612b9f818388611eaf565b8101600f81520301902054908115612d70575f19828101929081841161228757600e54818101908111612287578414612d3e57600e5490810190811161228757612beb612bf5916128aa565b506102c0856128aa565b612c106020612c03856128aa565b5060405192838092612591565b600f81520301902055612c21612a2a565b612c3360405193849251928391611eaf565b8201600f81528260205f9485930301902055600e5491828210612c5557505050565b8193915b600181811b906001600160ff1b0383168303612d2a57808201808311612d165760028301809311612d165786811080612cf5575b612ced575b508582109081612cca575b50612cc2575b50808514612cbb5784612cb591612ed1565b83612c59565b5050915050565b94505f612ca3565b809150612cd6836128aa565b50015490612ce3886128aa565b500154115f612c9d565b96505f612c92565b5081612d00826128aa565b50015482612d0d8a6128aa565b50015411612c8d565b634e487b7160e01b85526011600452602485fd5b634e487b7160e01b84526011600452602484fd5b5050612d6391505f92602091612d52612a2a565b604051938492839251928391611eaf565b8101600f81520301902055565b60405163075cb34d60e31b8152600490fd5b805b612d8b5750565b5f19810190808211612dcd57600191821c9180612da7836128aa565b50015490612db4846128aa565b5001541115612b3f5781612dc791612ed1565b80612d84565b60245f634e487b7160e01b81526011600452fd5b600e545f91825b600181811b906001600160ff1b03831683036122875780820180831161228757600283018093116122875785811080612e83575b612e7b575b508482109081612e58575b50612e50575b50808414612e4a5783612e4491612ed1565b82612de8565b50915050565b93505f612e32565b809150612e64836128aa565b50015490612e71876128aa565b500154115f612e2c565b95505f612e21565b5081612e8e826128aa565b50015482612e9b896128aa565b50015411612e1c565b90604051612eb181611f50565b602060018294604051612ec88161151a81856120d5565b84520154910152565b612ef5612ee0610298836128aa565b612eec612beb856128aa565b6105b6846128aa565b6001810190818111612287576020612c03612f0f926128aa565b600f815203019020556001810190818111612287576020612c03612f32926128aa565b600f81520301902055565b6001600160a01b0391821681526020810192909252909116604082015260600190565b612f6e610400368484611fd7565b15612fd2576020908260405193849283378101600a815203019020604051612f9581611f21565b81549060018060a01b0382169182825260a01c602082015260606002600185015494856040850152015491015215612fcc57421190565b50600190565b50505f90565b6020908260405193849283378101600a81520301902060405190612ffb82611f21565b80549160018060a01b0383169283825260a01c60208201526060600260018401549384604085015201549101528115612fd25742116130375790565b505f90565b91909160405183828237602081858101600a815203019020926040519161306283611f21565b84549260018060a01b0384169384825260a01c6020820152606060026001880154978860408501520154910152821580156130c9575b6130bb576020908260405193849283378101600c81520301902054909291309190565b505f93508392839250829150565b50428510613098565b5f60408051928051916020948581818501956130ef818389611eaf565b8101600a815203019020600181015442111561372d5781518681855161311681838a611eaf565b8101600c815203019020549560018060a01b03809254169686818852600b835261151a61314a868a208751928380926120d5565b805180151580613726575b6136d6575b508289526002845284868a20541690811515806136cf575b806136c5575b613584575b5050818152600283528181858782205416926134f3575b8215928184156134d2575b6134bc575b8282526002865287822080546001600160a01b0319168884161790555f805160206140558339815191528280a46134a55786600285518481806131eb8c8c51928391611eaf565b8101600a81520301902082815582600182015501558652600b81526132118387206129e2565b8583518281875161322381838c611eaf565b8101600c8152030190205582518181865161323f81838b611eaf565b81016010815203019020548061334a575b509061328f6021926132818551948592601760f91b8951613275818d85890190611eaf565b85019182015201612521565b03601f198101845283611f99565b7f00000000000000000000000000000000000000000000000000000000000000001690813b15610d36576132dc8692839285519485809481936327f429eb60e01b83528d6004840161260f565b03925af1801561334057613318575b505190515f805160206140158339815191529282919061330e9082908490611eaf565b81010390209180a3565b915f8051602061401583398151915293919461333661330e94611f6b565b94919350916132eb565b82513d87823e3d90fd5b5f199080820181811161349157600d5483810190811161347d5761336d90612071565b5061337782612071565b6134695761339e9261338d879361339293612a6b565b612071565b50875192838092612591565b601081520301902055600d54801561345557016133ba81612071565b613441579161328f9188846133d2602197965461209d565b80613405575b505050600d558785518281806133f28c8c51928391611eaf565b8101601081520301902055919250613250565b82601f821160011461341d575050555b885f806133d8565b909180825261343a601f878420940160051c8401600185016122cc565b5555613415565b634e487b7160e01b88526004889052602488fd5b634e487b7160e01b88526031600452602488fd5b634e487b7160e01b8b5260048b905260248bfd5b634e487b7160e01b8a52601160045260248afd5b634e487b7160e01b89526011600452602489fd5b602490845190637e27328960e01b82526004820152fd5b81805260038652878220600181540190556131a4565b506134dc83612203565b8082526003865287822080545f190190558161319f565b90508080613543575b15613508578290613194565b8591613526578151637e27328960e01b815260048101849052602490fd5b905163177e802f60e01b81529182916109e991906004840161219b565b5081158015613566575b806134fc575082815260048452848682205416156134fc565b50818152600584528581208582168a52845260ff868a20541661354d565b6135ed6135ce916135df60218a518351908a81818701936135a6818387611eaf565b8101600a81520301902060018060a01b031981541690558b519586945180928c870190611eaf565b8301601760f91b8a82015201612521565b03601f198101835282611f99565b857f00000000000000000000000000000000000000000000000000000000000000001691823b156136c1578a82613638928a5193849283926327f429eb60e01b84526004840161260f565b038183875af180156136b7576136a4575b50813b156103d257613674839283928951948580948193631f12703f60e01b8352836004840161260f565b03925af1801561369a579082911561317d5761368f90611f6b565b61142057805f61317d565b86513d84823e3d90fd5b6136af919350611f6b565b88915f613649565b88513d8d823e3d90fd5b8a80fd5b5080511515613178565b5089613172565b60018751916136e88184898701611eaf565b820191600a83528681429403019020015410613704575f61315a565b836109e98751928392633b81c60360e01b845260048401526024830190611ed0565b5089613155565b505050505050565b9061375a915f90828252602091600b83528060406137618183208251988980926120d5565b0388611f99565b8487805180151580613a55575b613a01575b50505085825260028552808220546001600160a01b039790881690811515806139f6575b806139ec575b6138aa575b50508582526002855286818320541696879361382a575b60029084955f805160206140558339815191529561380b575b1695866137f5575b87845252812080546001600160a01b0319168517905580a490565b86845260038152828420600181540190556137da565b61381489612203565b8685526003885283852080545f190190556137d2565b91939092508380613869575b156138455792909186926137b9565b5050915083155f14613526578151637e27328960e01b815260048101849052602490fd5b508615801561388c575b8061383657508584526004855281838520541615613836565b50868452600585528284208285165f52855260ff835f205416613873565b82935061390d906135df60216138fc9495518351908b81818701936138d0818387611eaf565b8101600a8152030190208d8b1660018060a01b031982541617905587519586945180928d870190611eaf565b8301601760f91b8b82015201612521565b877f00000000000000000000000000000000000000000000000000000000000000001691823b1561122357848261395892865193849283926327f429eb60e01b84526004840161260f565b038183875af180156139e2576139cf575b50813b15611bbd57613994849283928551948580948193631f12703f60e01b83528b6004840161260f565b03925af180156139c3579083916139af575b809291926137a2565b6139b890611f6b565b6103d657815f6139a6565b505051903d90823e3d90fd5b6139db90949194611f6b565b925f613969565b84513d87823e3d90fd5b508051151561379d565b508886161515613797565b8394509081613a198493600196518096819501611eaf565b8101600a81520301902001544211613a3557819084875f613773565b51633b81c60360e01b815260048101849052806109e96024820188611ed0565b506001600160a01b038716151561376e565b9161375a925f91838352602092600b84526040613a8b8183208251988980926120d5565b8685815180151580613d49575b613cfa575b50505085825260028552808220546001600160a01b039790881690869082151580613cef575b80613ce5575b613bbe575b505050858252600285528681832054169683818995168015159081613b2b575b50505060029084955f805160206140558339815191529561380b571695866137f55787845252812080546001600160a01b0319168517905580a490565b90809293959794965091613b70575b5015613b4d579182808995939694613aee565b83879189155f14613526578151637e27328960e01b815260048101849052602490fd5b89811491508115613ba0575b8115613b8a575b505f613b3a565b905087865260048752838587205416145f613b83565b905088865260058752848620815f52875260ff855f20541690613b7c565b613c1e906135df602186518d845191878181880194613bde818388611eaf565b8101600a815203019020908c1660018060a01b0319825416179055613c0d885196879551928391870190611eaf565b8301601760f91b8c82015201612521565b887f00000000000000000000000000000000000000000000000000000000000000001691823b15611223578482613c6992865193849283926327f429eb60e01b84526004840161260f565b038183875af180156139e257613cd2575b50813b15611bbd57613ca5849283928551948580948193631f12703f60e01b83528c6004840161260f565b03925af180156139c357908391613cbe575b8690613ace565b613cc790611f6b565b6103d657815f613cb7565b613cde90949194611f6b565b925f613c7a565b5080511515613ac9565b508987161515613ac3565b60019281613d0f849387518096819501611eaf565b8101600a81520301902001544211613d295786855f613a9d565b51633b81c60360e01b815260048101859052806109e96024820189611ed0565b506001600160a01b0387161515613a98565b5160038103613d815750662aa1efb94e00005b8181029181830414901517156122875790565b60048103613d975750662386f26fc10000613d6e565b60058103613dad5750661c6bf526340000613d6e565b600603613dc157661550f7dca70000613d6e565b660e35fa931a0000613d6e565b908151811015612089570160200190565b805160038110908115613f49575b50613037575f5b8151811015613f42576001600160f81b031980613e118385613dce565b5116821591828093613f35575b613f2c5784515f19939084810190811161228757851480613f1f575b613f1557602d60f81b92808403613e8b5750159283613e69575b505050612fd257613e649061229b565b613df4565b90919250830183811161228757613e809085613dce565b5116145f8080613e54565b93505050600360fc1b821015905080613f07575b159081613ee2575b81613ebb575b50612fd257613e649061229b565b606160f81b811015915081613ed3575b50155f613ead565b603d60f91b101590505f613ecb565b9050604160f81b81101580613ef9575b1590613ea7565b50602d60f91b811115613ef2565b50603960f81b811115613e9f565b5050505050505f90565b50602d60f81b8314613e3a565b50505050505f90565b50602d60f81b8214613e1e565b5050600190565b60149150115f613ded565b60198102818104601914821517156122875760649004808203918083116122875781613fd9575b03613f835750565b5f908190819081907f00000000000000000000000000000000000000000000000000000000000000006001600160a01b03165af1613fbf61273d565b5015613fc757565b6040516312171d8360e31b8152600490fd5b5f80808085734e08ff4ce98523f7b1299aae51f515ba64baf6795af1613ffd61273d565b50613f7b576040516312171d8360e31b8152600490fdfece2ef1eacc2a2d54c451fa15fd66d072ca91d3ed5640e61d655400b6f9c1194087fd548bf5794610496e606965e724cec5c33f621c084067a46c43a81a1887e7ddf252ad1be2c89b69c2b068fc378daa952ba7f163c4a11628f55a4df523b3ef8196751bf8febb17a48c6b460fdf6f322bb4570aff67923580e67c6ae56e5798f8e1a15aba9398e019f0b49df1a4fde98ee17ae345cb5f6b5e2c27f5033e8ce7a26469706673582212204f9966de5cb5b7615f8c76bbe91ab8b44e94c32accc430741a347bc81f5268ef64736f6c634300081400338be0079c531659141344cd1fd0a4f28419497f9722a3daafe3b4186f6b6457e0a2646970667358221220eb7101c6b398082807c0e2e5589e947596c6b2452c20627609f76eeccdcd1b7b64736f6c634300081400336080806040523461001657611f74908161001b8239f35b5f80fdfe6040608081526004361015610012575f80fd5b5f90813560e01c63227dcd1d14610027575f80fd5b34611e895780600319360112611e89576001600160401b0391600435838111611e8957610058903690600401611ec4565b90602435938411611e865750610075611e78933690600401611ec4565b82517f3c3f786d6c2076657273696f6e3d22312e302220656e636f64696e673d22555460208083019182526523169c111f9f60d11b838701527f3c7376672069643d226b61746d616e5f312220786d6c6e733d22687474703a2f60468401527f2f7777772e77332e6f72672f323030302f737667222076657273696f6e3d223160668401527f2e312220786d6c6e733a786c696e6b3d22687474703a2f2f7777772e77332e6f60868401527f72672f313939392f786c696e6b222076696577426f783d22302030203237302060a684015264191b98111f60d91b60c6840152651e3232b3399f60d11b60cb840152661e39ba3cb6329f60c91b60d18401527f2e7374302c202e737431207b2066696c6c3a20233161306630653b207d00000060d88401527f2e7374302c202e737432207b20666f6e742d66616d696c793a20417269616c2d60f58401527f426f6c644d542c20417269616c3b20666f6e742d73697a653a20333270783b206101158401527f666f6e742d7765696768743a203730303b2069736f6c6174696f6e3a2069736f610135840152666c6174653b207d60c81b610155840152762e737433207b2066696c6c3a20236565336435663b207d60481b61015c840152792e7374342c202e737432207b2066696c6c3a20236666663b207d60301b610173840152762e737435207b2066696c6c3a20233835323033613b207d60481b61018d840152762e737436207b2066696c6c3a20236536376535393b207d60481b6101a4840152762e737437207b2066696c6c3a20233563323232663b207d60481b6101bb8401527f2e737438207b2066696c6c3a2075726c2823416473697a5f646567726164655f6101d2840152653131293b207d60d01b6101f2840152762e737439207b2066696c6c3a20236639623038323b207d60481b6101f8840152772e73743130207b2066696c6c3a20236632376136653b207d60401b61020f840152772e73743131207b2066696c6c3a20236637663966333b207d60401b610227840152772e73743132207b2066696c6c3a20233939343933653b207d60401b61023f840152671e17b9ba3cb6329f60c11b6102578401527f3c6c696e6561724772616469656e742069643d22416473697a5f64656772616461025f8401527f655f31312220646174612d6e616d653d22416473697a2064656772616465203161027f8401527f31222078313d22323137222079313d222d31372e39222078323d222d33372e3561029f8401527f222079323d223435362e3622206772616469656e745472616e73666f726d3d226102bf8401527f7472616e736c6174652830203236392e3929207363616c652831202d312922206102df8401527f6772616469656e74556e6974733d227573657253706163654f6e557365223e006102ff8401527f3c73746f70206f66667365743d2230222073746f702d636f6c6f723d2223303061031e84015266321c1b9811179f60c91b61033e8401527f3c73746f70206f66667365743d222e34222073746f702d636f6c6f723d2223306103458401526718319b9b1b91179f60c11b6103658401527f3c73746f70206f66667365743d2231222073746f702d636f6c6f723d2223303061036d84015266309b9a9b91179f60c91b61038d840152701e17b634b732b0b923b930b234b2b73a1f60791b610394840152661e17b232b3399f60c91b6103a58401527f3c7265637420636c6173733d227374382220793d2230222077696474683d22326103ac840152711b9811103432b4b3b43a1e91191b9811179f60711b6103cc8401527f3c7465787420636c6173733d2273743022207472616e73666f726d3d227472616103de8401527f6e736c6174652833322e352032303029223e3c747370616e20783d22302220796103fe840152641e9118111f60d91b61041e840152845192949193611e5d936118c5938793610423929161061a9183918588019101611f1d565b8301906e1e17ba39b830b71f1e17ba32bc3a1f60891b8091830152621e339f60e91b806104328401527f3c7265637420636c6173733d227374312220783d2236332e342220793d2237336104358401527f2e37222077696474683d22352e3222206865696768743d22322e36222f3e000091826104558501527f3c706f6c79676f6e20636c6173733d227374332220706f696e74733d2236362e6104738501527f312037312e312036362e312036382e352036332e342036382e352036332e34206104938501527f37332e372036382e372037332e372036382e372037312e312036362e312037316104b385015264171891179f60d91b6104d38501527f3c7265637420636c6173733d227374312220783d2233392e392220793d2237316104d88501527f2e31222077696474683d22352e3222206865696768743d22322e36222f3e00006104f88501527f3c7265637420636c6173733d227374312220783d2237332e392220793d2236386105168501527f2e35222077696474683d22352e3222206865696768743d22322e36222f3e00006105368501527f3c7265637420636c6173733d227374312220783d2236382e372220793d2236386105548501527f2e35222077696474683d22322e3622206865696768743d22352e32222f3e0000806105748601527f3c7265637420636c6173733d22737431302220783d2236362e312220793d22366105928601527f382e35222077696474683d22322e3622206865696768743d22322e36222f3e006105b28601527f3c706f6c79676f6e20636c6173733d227374312220706f696e74733d2236332e6105d18601527f342036382e352035352e362036382e352035352e362037312e312036302e38206105f18601527f37312e312036302e382037332e372036332e342037332e372036332e3420363861061186015264171a91179f60d91b90816106318701527f3c7265637420636c6173733d227374312220783d2234352e312220793d2236386106368701527f2e35222077696474683d22322e3622206865696768743d22322e36222f3e0000806106568801527f3c7265637420636c6173733d227374312220783d2233372e322220793d2236386106748801526106948701527f3c7265637420636c6173733d227374312220783d2237312e332220793d2236356106b28701527f2e38222077696474683d22322e3622206865696768743d22322e36222f3e00006106d28701527f3c7265637420636c6173733d22737431322220783d2236382e372220793d22366106f08701527f352e38222077696474683d22322e3622206865696768743d22322e36222f3e006107108701527f3c7265637420636c6173733d227374352220783d2236302e382220793d22363561072f8701527f2e38222077696474683d22352e3222206865696768743d22322e36222f3e000061074f8701527f3c706f6c79676f6e20636c6173733d227374362220706f696e74733d2236302e918261076d8801527f382036382e352036302e382036332e322036382e372036332e322036382e372061078d8801527f36352e382037312e332036352e382037312e332036332e322037332e392036336107ad8801527f2e322037332e392035352e342037312e332035352e342037312e3320353820366107cd8801527f382e372035382036382e372036302e362036302e382036302e362036302e38206107ed8801527f35382035352e362035382035352e362036302e362035332036302e362035332061080d8801527f36352e382035352e362036352e382035352e362036382e352036302e3820363861082d88015261084d8701527f3c7265637420636c6173733d227374312220783d2235332220793d2236352e386108528701527b11103bb4b23a341e9119171b11103432b4b3b43a1e9119171b11179f60211b806108728801527f3c7265637420636c6173733d22737431322220783d2237312e332220793d223661088e8801527f332e32222077696474683d22322e3622206865696768743d22322e36222f3e006108ae8801527f3c706f6c79676f6e20636c6173733d227374312220706f696e74733d2236302e6108cd8801527f382036332e322036302e382036352e382036362e312036352e382036362e31206108ed8801527f36382e352036382e372036382e352036382e372036332e322036302e3820363361090d88015264171911179f60d91b61092d8801527f3c7265637420636c6173733d227374372220783d2235302e332220793d2236336109328801527f2e32222077696474683d22322e3622206865696768743d22322e36222f3e0000806109528901527f3c7265637420636c6173733d227374312220783d2234372e372220793d2236336109708901527f2e32222077696474683d22322e3622206865696768743d22352e32222f3e00006109908901527f3c706f6c79676f6e20636c6173733d22737431322220706f696e74733d2234376109ae8901527f2e372036332e322033392e392036332e322033392e392035382033372e3220356109ce8901527f382033372e322034372e352033342e362034372e352033342e362036332e32206109ee8901527f33372e322036332e322033372e322036382e352033392e392036382e35203339610a0e8901527f2e392037312e312034352e312037312e312034352e312036382e352034372e37610a2e89015271101b1c171a901a1b971b901b19971911179f60711b610a4e8901527f3c7265637420636c6173733d227374312220783d2233342e362220793d223633610a60890152610a808801527f3c7265637420636c6173733d227374372220783d2234372e372220793d223630610a9e8801527f2e36222077696474683d22322e3622206865696768743d22322e36222f3e000080610abe8901527f3c7265637420636c6173733d227374312220783d2233322220793d2234372e35610adc8901527f222077696474683d22322e3622206865696768743d2231352e37222f3e000000610afc8901527f3c706f6c79676f6e20636c6173733d22737431322220706f696e74733d223736610b198901527f2e352036352e382037332e392036352e382037332e392036382e352037392e32610b398901527f2036382e352037392e322035382037362e352035382037362e352036352e3822610b5989015261179f60f11b610b798901527f3c7265637420636c6173733d227374312220783d2234352e312220793d223538610b7b8901527b11103bb4b23a341e9119171b11103432b4b3b43a1e911a971911179f60211b9283610b9b8a01527f3c7265637420636c6173733d22737431322220783d2236382e372220793d2235610bb78a01527f352e34222077696474683d22322e3622206865696768743d22322e36222f3e00610bd78a01527f3c7265637420636c6173733d227374372220783d2236362e312220793d223535610bf68a01527f2e34222077696474683d22322e3622206865696768743d22322e36222f3e00009384610c168b01527f3c706f6c79676f6e20636c6173733d227374312220706f696e74733d2236362e610c348b01527f312035352e342036302e382035352e342036302e382036302e362036382e3720610c548b01527f36302e362036382e372035382036362e312035382036362e312035352e34222f610c748b0152601f60f91b9889610c948c01527f3c7265637420636c6173733d227374392220783d2236302e382220793d223532610c958c0152610cb58b01527f3c7265637420636c6173733d227374312220783d2234322e352220793d223434610cd38b01527f2e39222077696474683d22322e3622206865696768743d2231332e31222f3e00610cf38b01527f3c7265637420636c6173733d227374312220783d2237332e392220793d223437610d128b01527f2e35222077696474683d22322e3622206865696768743d2231382e33222f3e00610d328b01527f3c7265637420636c6173733d227374342220783d2236362e312220793d223437610d518b015281610d718b01527f3c7265637420636c6173733d227374342220783d2235332220793d2234372e35610d8f8b0152610daf8a01527f3c7265637420636c6173733d227374312220783d2237392e322220793d223437610dcb8a01527f2e35222077696474683d22322e3622206865696768743d223231222f3e000000610deb8a01527f3c7265637420636c6173733d227374362220783d2237362e352220793d223437610e088a01527f2e35222077696474683d22322e3622206865696768743d2231302e35222f3e00610e288a01527f3c7265637420636c6173733d22737431322220783d2237312e332220793d2234610e478a01527f372e35222077696474683d22322e3622206865696768743d22372e39222f3e00610e678a01527f3c706f6c79676f6e20636c6173733d227374312220706f696e74733d2236382e610e868a01527f372035322e372036362e312035322e372036362e312035352e342037312e3320610ea68a01527f35352e342037312e332034372e352037332e392034372e352037332e39203432610ec68a01527f2e332037312e332034322e332037312e332034342e392036362e312034342e39610ee68a01527f2036362e312034372e352036382e372034372e352036382e372035322e37222f610f068a015287610f268a01527f3c7265637420636c6173733d227374372220783d2235302e332220793d223437610f278a0152610f478901527f3c7265637420636c6173733d227374312220783d2237362e352220793d223432610f658901527f2e33222077696474683d22322e3622206865696768743d22352e32222f3e0000610f858901527f3c706f6c79676f6e20636c6173733d227374312220706f696e74733d2235352e610fa38901527f362034372e352035352e362035322e372035332035322e372035332035352e34610fc38901527f2035382e322035352e342035382e322034342e392035332034342e3920353320610fe3890152701a1b971a901a9a971b101a1b971a91179f60791b6110038901527f3c706f6c79676f6e20636c6173733d227374362220706f696e74733d2233372e6110148901527f322035382033392e392035382033392e392036332e322034352e312036332e326110348901527f2034352e312035382034322e352035382034322e352034342e392034352e31206110548901527f34342e392034352e312033392e362033392e392033392e362033392e3920343261107489015276171990199b9719101a19171990199b9719101a9c11179f60491b6110948901527f3c7265637420636c6173733d227374312220783d2233342e362220793d2234326110ab8901527f2e33222077696474683d22322e3622206865696768743d22322e36222f3e0000806110cb8a01527f3c7265637420636c6173733d22737431322220783d2237332e392220793d22346110e98a01527f322e33222077696474683d22322e3622206865696768743d22322e36222f3e006111098a01527f3c7265637420636c6173733d227374312220783d2234352e312220793d2234326111288a01526111488901527f3c7265637420636c6173733d227374312220783d2237332e392220793d223339611166890152806111868901527f3c7265637420636c6173733d22737431322220783d2237312e332220793d22336111a48901527f392e36222077696474683d22322e3622206865696768743d22322e36222f3e006111c48901527f3c7265637420636c6173733d227374312220783d2236382e372220793d2233396111e3890152806112038901527f3c7265637420636c6173733d22737431322220783d2236302e382220793d22336112218901527f37222077696474683d22322e3622206865696768743d22352e32222f3e0000006112418901527f3c7265637420636c6173733d227374372220783d2234372e372220793d22333961125e8901528061127e8901527f3c7265637420636c6173733d227374312220783d2233372e322220793d22333961129c8901526112bc8801527f3c7265637420636c6173733d227374312220783d2237312e332220793d2233376112da880152806112fa8801527f3c706f6c79676f6e20636c6173733d22737431322220706f696e74733d2234356113168801527f2e312033392e362034352e312034322e332034372e372034322e332034372e376113368801527f2033392e362035302e332033392e362035302e332034322e332034372e3720346113568801527f322e332034372e372034342e392034352e312034342e392034352e31203538206113768801527f34372e372035382034372e372036302e362035302e332036302e362035302e336113968801527f2036332e322035332036332e322035332036302e362035352e362036302e36206113b68801527f35352e362035382036302e382035382036302e382035322e372036362e3120356113d68801527f322e372036362e312034372e352035382e322034372e352035382e322035352e6113f68801527f342035332035352e342035332035322e372035302e332035322e372035302e336114168801527f2034372e352035332034372e352035332033392e362035352e362033392e36206114368801527f35352e362033372035382e322033372035382e322033342e342034372e3720336114568801527f342e342034372e372033372034322e352033372034322e352033392e3620343561147688015269171890199c971b11179f60b11b6114968801527f3c7265637420636c6173733d227374312220783d2233392e392220793d2233376114a08801526114c08701527f3c7265637420636c6173733d227374312220783d2236362e312220793d2233346114dc8701527f2e34222077696474683d22352e3222206865696768743d22322e36222f3e000091826114fc88015261151a8701527f382033342e342036302e382033372036332e342033372036332e342034322e3361153a8701527f2036302e382034322e332036302e382033372035352e362033372035352e362061155a8701527f33392e362035332033392e362035332034342e392035382e322034342e39203561157a8701527f382e322034372e352036362e312034372e352036362e312034342e392037312e61159a8701527f332034342e392037312e332034322e332036382e372034322e332036382e37206115ba8701527f33392e362037312e332033392e362037312e332033372036362e3120333720366115da870152741b171890199a171a101b18171c10199a171a11179f60591b6115fa8701527f3c7265637420636c6173733d227374372220783d2235382e322220793d22333461160f87015261162f8601527f3c7265637420636c6173733d227374312220783d2234322e352220793d22333461164d86015261166d8501527f3c7265637420636c6173733d227374312220783d2234372e372220793d22333161168b8501527f2e38222077696474683d2231382e3322206865696768743d22322e36222f3e006116ab850152631e17b39f60e11b93846116ca8201527f3c7465787420636c6173733d2273743222207472616e73666f726d3d227472616116ce8201527f6e736c6174652833332e33203233372e3929223e3c747370616e20783d2230226116ee82015267103c9e9118111f1760c11b61170e820152855190611c39826117169860208a85019101611f1d565b01948501526117258401527f3c7061746820636c6173733d22737431312220643d224d3232352e392c36312e6117288401527f356c392e362c392e362d342e352c342e352d392e362d392e36632d2e382d2e386117488401527f2d312e392d312e332d332e312d312e33732d322e322e342d332e312c312e336c6117688401527f2d392e362c392e362d342e352d342e352c392e362d392e366831352e315a222f6117888401526117a88301527f3c7061746820636c6173733d22737431312220643d224d3232372e352c35382e6117a98301527f376c31332e312c332e352c312e362d362e322d31332e312d332e35632d312e316117c98301527f2d2e332d322d312d322e362d322d2e362d312d2e372d322e322d2e342d332e336117e98301527f6c332e352d31332e312d362e312d312e362d332e352c31332e312c372e352c3161180983015268199718b4182d11179f60b91b806118298401527f3c7061746820636c6173733d22737431312220643d224d3230392e322c35382e6118328401527f376c2d31332e312c332e352d312e362d362e322c31332e312d332e3563312e316118528401527f2d2e332c322d312c322e362d322c2e362d312c2e372d322e322e342d332e336c6118728401527f2d332e352d31332e312c362e312d312e362c332e352c31332e312d372e352c316118928401526118b28301526118bb820152651e17b9bb339f60d11b6118bf820152036118a5810185520183611e8d565b82519384926020845251809281602086015285850190611f1d565b601f01601f19168101030190f35b80fd5b5080fd5b601f909101601f19168101906001600160401b03821190821017611eb057604052565b634e487b7160e01b5f52604160045260245ffd5b81601f82011215611f19578035906001600160401b038211611eb05760405192611ef8601f8401601f191660200185611e8d565b82845260208383010111611f1957815f926020809301838601378301015290565b5f80fd5b5f5b838110611f2e5750505f910152565b8181015183820152602001611f1f56fea2646970667358221220e9d8c698bb3f3fa4873cfe63b58ddaa23708f40c59235ea82ab80ca6b60c0f4a64736f6c63430008140033",
    "linkReferences": {
      "src/DomainUtils.sol": {
        "DomainUtils": [
          {
            "start": 683,
            "length": 20
          }
        ]
      },
      "src/TokenURILibrary.sol": {
        "TokenURILibrary": [
          {
            "start": 9148,
            "length": 20
          },
          {
            "start": 11369,
            "length": 20
          }
        ]
      }
    }
  },
  "methodIdentifiers": {
    "addDomainToAddress(address,string)": "1f12703f",
    "addTLD(string)": "96da5873",
    "addressToDomains(address,uint256)": "15f8b35b",
    "mainDomain(address)": "51b3a70f",
    "owner()": "8da5cb5b",
    "registeredTLDs(uint256)": "79dcf4d0",
    "removeDomainFromAddress(address,string)": "27f429eb",
    "renounceOwnership()": "715018a6",
    "resolve(string,string)": "98d7a7c6",
    "reverseLookup(address)": "09f81a6f",
    "setMainDomain(string)": "cf7f8c92",
    "svgLibrary()": "a001e0d5",
    "tldContracts(string)": "3f78d028",
    "transferOwnership(address)": "f2fde38b",
    "validNSAddress(address)": "8f3f63e1",
    "withdrawFunds()": "24600fc3"
  },
  "id": 41
}